:020000040800F2
:100000000040012071D10008A5D10008A5D1000849
:10001000A5D10008A5D10008A5D100080000000066
:10002000000000000000000000000000C592000871
:10003000A5D10008000000002D9300083D930008A2
:10004000A5D10008A5D10008A5D10008A5D10008B8
:10005000A5D10008A5D10008A5D10008A5D10008A8
:10006000A5D10008A5D10008A5D10008A5D1000898
:10007000A5D10008A5D10008A5D10008A5D1000888
:10008000A5D10008A5D10008A5D10008A5D1000878
:10009000A5D10008A5D10008A5D10008A5D1000868
:1000A000A5D10008A5D10008A5D10008A5D1000858
:1000B000A5D10008A5D10008A5D10008A5D1000848
:1000C000A5D10008A5D10008A5D10008A5D1000838
:1000D000A5D10008A5D10008A5D10008A5D1000828
:1000E000A5D10008A5D10008A5D10008A5D1000818
:1000F000A5D1000800000000A5D10008A5D1000886
:10010000A5D10008A5D10008A5D10008A5D10008F7
:10011000A5D10008A5D10008A5D100080000000065
:10012000A5D1000800000000000000000000000051
:1001300000000000000000005FF808F110B5054C59
:10014000237833B9044B13B10448AFF30080012383
:10015000237010BD880D0020000000008C460208AE
:1001600008B5034B1BB103490348AFF3008008BD3A
:10017000000000008C0D00208C460208154B002B5F
:1001800008BF134B9D46A3F5803A00218B460F46CE
:100190001348144A121A19F05BF90F4B002B00D0C8
:1001A00098470E4B002B00D09847002000210400F8
:1001B0000D000D48002802D00C4808F0DFFB18F0B5
:1001C000BFFC2000290008F0D9FE08F0CDFB00BFDD
:1001D0000000080000400120000000003D900008E1
:1001E000880D0020C44400207D8900080000000024
:1001F00082B00190019B184602B0704700B587B0ED
:10020000039002910192019B132B10D9029B05933D
:10021000059B1B78812B03D10A4819F079F90BE073
:10022000059B1B781946084819F072F904E014225E
:100230000199064819F06CF90023184607B05DF8DB
:1002400004FB00BFA8150208C0150208D815020853
:1002500000B585B0039002910192039B80221A752C
:100260002D4803F01DFA0246039BC3F815202A48C7
:1002700003F052FA0246039BC3F81920264803F004
:1002800093F90246039BC3F81D20234803F07CFA30
:100290000246039BC3F821201F4803F091FB02464E
:1002A000039BC3F8252004F0EBFD0246039BC3F833
:1002B000292004F0BBFE03461A46039B83F82D2039
:1002C00002F08AFE03461A46039BC3F82E20039BC6
:1002D0004FF00002C3F83220039B4FF00002C3F836
:1002E00036200D4B9A6A039BC3F83A200A4BDA6A10
:1002F000039BC3F83E20019B2D2B08D9039B14338D
:100300002E221946029818F0CBFF2E2300E000237E
:10031000184605B05DF804FB2424002082B001904B
:100320000091009B184602B07047000000B583B0F2
:1003300001900091034819F0EBF80023184603B030
:100340005DF804FBC819020800B585B00190009162
:1003500001990D4819F0DCF800230393039A019BDF
:100360009A420BDA039B1B01009A13441946074873
:1003700019F0CEF8039B01330393EFE700231846EF
:1003800005B05DF804FB00BFD8190208F419020893
:100390002DE9F04794B01390129104F0FBFC314822
:1003A00019F0B6F8304803F0FFF80346184620F07D
:1003B0004DF8CDE90C012C4803F072F903461846BC
:1003C00020F044F805460E46274803F0A5F90346F9
:1003D000184620F03BF807468846234803F0D4F936
:1003E0000346184620F032F881468A461E4803F03C
:1003F000F7F90346184620F029F8CDE90E011A480E
:1004000003F01AFA0346184620F020F8CDE910014F
:10041000154803F049FA0346184620F017F803463A
:100420000C46CDE90A34DDE91034CDE90834DDE9C4
:100430000E34CDE90634CDE9049ACDE90278CDE950
:100440000056DDE90C23094819F062F8084819F054
:100450005FF8054803F090FF0023184614B0BDE88C
:10046000F08700BFFC190208242400200C1A02089F
:10047000701A020810B586B001900091019B032B01
:1004800025D1009B1033184617F088FB03460C4615
:100490001846214620F02AFB03460493009B203394
:1004A000184617F07BFB03460C461846214620F001
:1004B0001DFB0346039304991F4804F0C1FA0399F6
:1004C0001D4804F0DEFA1C4804F09EFA2FE0019B60
:1004D000022B19D1009B1033184617F05FFB03461F
:1004E0000C461846214620F001FB0346059305996A
:1004F000114804F0A5FA4FF07C510F4804F0C1FAFE
:100500000D4804F081FA12E0019B012B0CD10B493C
:10051000094804F095FA4FF07C51074804F0B1FA0D
:10052000054804F071FA02E0054818F0F1FF0023D5
:10053000184606B010BD00BF54240020CDCCCC3DE1
:100540008C1A020800B583B001900091034804F0B2
:1005500069FA0023184603B05DF804FB5424002018
:1005600010B586B001900091019B032B25D1009B13
:100570001033184617F012FB03460C461846214666
:1005800020F0B4FA03460493009B2033184617F07A
:1005900005FB03460C461846214620F0A7FA034601
:1005A000039304991F4804F04BFA03991D4804F083
:1005B00068FA1C4804F028FA2FE0019B022B19D19D
:1005C000009B1033184617F0E9FA03460C4618460C
:1005D000214620F08BFA034605930599114804F053
:1005E0002FFA4FF07C510F4804F04BFA0D4804F0FD
:1005F0000BFA12E0019B012B0CD10B49094804F0C6
:100600001FFA4FF07C51074804F03BFA054804F00C
:10061000FBF902E0054818F07BFF0023184606B0FE
:1006200010BD00BF60240020CDCCCC3D8C1A020848
:1006300000B583B001900091034804F0F3F9002362
:10064000184603B05DF804FB6024002000B587B0B5
:100650000190009102AB0949184600F03BF902AB4A
:10066000194607480CF038FC02AB184600F049F96F
:100670000023184607B05DF804FB00BFD14A00080C
:100680006C10002000B583B00190009103480CF07D
:10069000C5FC0023184603B05DF804FB6C10002075
:1006A00010B584B001900091019B012B1BDD01234B
:1006B0000393039A019B9A4218DA039B1B01009A49
:1006C00013441C46039B1B01009A1344184619F05F
:1006D00073FC03461A462146064801F025FD039B9C
:1006E00001330393E5E7044818F012FF002318468E
:1006F00004B010BD041500208C1A020810B584B097
:1007000001900091019B002B0EDD0B4803F058F97E
:10071000039003981FF09AFE03460C461A462346A0
:10072000064818F0F5FE02E0054818F0F1FE002337
:10073000184604B010BD00BF24240020A41A0208EB
:100740008C1A020810B584B001900091019B012B16
:100750001BDD009B1033184617F020FA03460C46A9
:100760001846214620F0C2F90346039303990A482C
:1007700003F0D2F803981FF069FE03460C461A46B0
:100780002346064818F0C4FE02E0054818F0C0FEF3
:100790000023184604B010BD24240020AC1A02081F
:1007A0008C1A020800B583B001900091034803F051
:1007B0002FFB0023184603B05DF804FB242400201F
:1007C00000B583B001900091034803F042FB002381
:1007D000184603B05DF804FB2424002000B583B064
:1007E00001900091034803F0CDFB0023184603B0AD
:1007F0005DF804FB2424002010B584B00190009122
:10080000019B012B1BDD009B1033184617F0C6F926
:1008100003460C461846214620F068F90346039328
:1008200003990A4803F042FC03981FF00FFE0346A9
:100830000C461A462346064818F06AFE02E00548B0
:1008400018F066FE0023184604B010BD24240020D2
:10085000CC1A02088C1A020810B582B001900091DF
:10086000084803F063FC034618461FF0EFFD0346FB
:100870000C461A462346044818F04AFE0023184640
:1008800002B010BD24240020E81A020800B583B08D
:1008900001900091012004F0ABFB044818F038FEF1
:1008A0000023184603B05DF804FB00BF001B0208DC
:1008B00000B583B001900091002004F099FB04483A
:1008C00018F026FE0023184603B05DF804FB00BFB5
:1008D000101B020800B583B001900091009B002B13
:1008E00005D110220021019818F0B2FD04E06B46FA
:1008F0001946019800F016F8019B184603B05DF800
:1009000004FB00B583B00190019BDB68002B04D091
:10091000019BDB689B6801989847019B184603B0D0
:100920005DF804FB00B583B0019000911022002116
:10093000019818F08DFD019B19460420FFF7EEFC8D
:100940000346002B02D0009A12681A60019B034AEA
:10095000DA6000BF03B05DF804FB00BF241B02088F
:1009600000B583B00190019B1B68984700BF03B09E
:100970005DF804FB00B583B001900091019B19461E
:100980000420FFF7CBFC0346002B02D0009A12682C
:100990001A6000BF03B05DF804FB82B0019000BF95
:1009A00002B0704700B59BB003900291019203988A
:1009B00019F002FB0346179320238DF857300A21C4
:1009C000039819F049F91690169B002B14BF0123C8
:1009D0000023DBB2002B02D0169B00221A700D21DF
:1009E000039819F039F91690169B002B14BF0123B8
:1009F0000023DBB2002B02D0169B00221A70039852
:100A000019F0DAFA03460133402B8CBF012300238F
:100A1000DBB2002B01D002233BE005AB0399184663
:100A200019F06CFA0DF1570205AB114618461AF091
:100A300003FB199000231893199B002B25D0189BBA
:100A4000092B01DD032324E0199819F0B5FA0346B8
:100A500001330F2B8CBF01230023DBB2002B01D00D
:100A6000042316E0189B1B01019A13441999184698
:100A700019F044FA0DF15703194600201AF0DCFA78
:100A80001990189B01331893D6E7029B189A1A60A5
:100A9000002318461BB05DF804FB000000B589B0C8
:100AA000039002910192174B1B680693019B002B48
:100AB00001D1062322E000230793079A069B9A425E
:100AC0001BDA079B9B00019A13441B681B68059364
:100AD0000599029819F034F90346002B0CBF012345
:100AE0000023DBB2002B04D0039B079A1A6000237B
:100AF00004E0079B01330793DFE70523184609B09D
:100B00005DF804FB201B020800B587B0019000913E
:100B100004AB1F4A19460198FFF744FF03468DF8BE
:100B200017309DF81730002B02D09DF817302AE0BF
:100B3000009B002B01D1062325E00023039303AB88
:100B4000009A13491846FFF7A9FF03468DF817309E
:100B50009DF81730002B02D09DF8173013E0039B4F
:100B60000C4A52F82330DB68049A0949104698472A
:100B700003468DF817309DF81730002B02D09DF8F2
:100B8000173000E00023184607B05DF804FB00BFF3
:100B9000A40D00207402002000B583B0194B1B681F
:100BA0000093194818F0B4FC184818F0B1FC002361
:100BB0000193019A009B9A421EDA154A019B52F852
:100BC00023301B681946134818F0A2FC104A019BF9
:100BD00052F823305B6819460F4818F099FC0C4A0C
:100BE000019B52F823309B6819460C4818F090FC82
:100BF000019B01330193DCE70023184603B05DF845
:100C000004FB00BF201B0208E81B0208081C0208A6
:100C100074020020281C0208381C0208481C020824
:100C200000B585B001900091009B002B03D10623F5
:100C30008DF80F3006E000990198FFF765FF034635
:100C40008DF80F309DF80F30052B01D1FFF7A4FF71
:100C50009DF80F30002B04D09DF80F30184600F09F
:100C600007F89DF80F30184605B05DF804FB00004A
:100C700000B585B003468DF80730382303939DF8FF
:100C80000730039A9A420CDD084B1B68D8689DF820
:100C90000730074ADB0013445B681A46054917F022
:100CA00087FA00BF05B05DF804FB00BFC003002059
:100CB000C00200208C1C020882B001900091009BB1
:100CC000002B05D0019B9B68019A12681A6004E012
:100CD000019BDB68019A12681A6000BF02B070477E
:100CE00082B00190019B5B681A68019B1B681340EE
:100CF000002B01D0012300E00023184602B070470A
:100D000000B583B001900B46ADF80230019B1A4646
:100D10000023136053609360D36013615361936148
:100D2000019BBDF902201146184605F0C1FE019B4A
:100D3000184603B05DF804FB00B583B00190019B39
:100D40001846FFF7CDFF0346184603B05DF804FBD5
:100D500000B583B001900B468DF8033007F004F81E
:100D6000019B9DF803201146184612F051FF07F031
:100D700047F800BF03B05DF804FB00B585B00390F1
:100D80000B460192ADF80A30039B1A46002313600C
:100D900053609360D360136153619361039BBDF90A
:100DA0000A10019A184605F0BAFE039B184605B0D2
:100DB0005DF804FB00B583B001900091019B0099A0
:100DC0001846FFF779FF00BF03B05DF804FB000091
:100DD00010B58EB00590084611461A460346ADF888
:100DE00012300B46ADF810301346ADF80E300598B2
:100DF0009DF85830159A149901F014F93D4A059B55
:100E00001A60059B03F6DC50BDF90E40BDF91020B9
:100E1000BDF912104FF0FF330093234605F03AF866
:100E2000059B03F6B863BDF9401001221846FFF791
:100E3000A4FF059B03F6D463BDF9441001221846B4
:100E4000FFF79BFF059B03F56F63BDF94820114633
:100E50001846FFF755FF059B2749184601F0D4F9BE
:100E6000059B139AC3F8182F059B03F6DC53002249
:100E70000821184605F068F8059B03F6DC531F4966
:100E8000184605F095F8059B03F56F630121184698
:100E9000FFF75EFF07AB1C220021184618F0D8FAB6
:100EA00006238DF8303000238DF83530144B09932C
:100EB0000623ADF8323000230793124B0B930A231D
:100EC0008DF8293055238DF8343002238DF82830E1
:100ED0003C238DF836300023089307AB194605985C
:100EE00000F040F9059800F0CFF9059B18460EB0C8
:100EF00010BD00BF801F0208981C020840420F006E
:100F0000400ECF1920A107002DE9104895B001909F
:100F100001238DF84F30019B5549184601F074F9B3
:100F2000019800F079FA019800F0F0FA0346012BDD
:100F30000CBF01230023DBB2002B01D0012392E080
:100F4000019B7433184601F084FC1290129B002B15
:100F500000F08480129B3B2B1ED900238DF84F306C
:100F6000019B2C334FF0FF31184607F0C5FE019B63
:100F700003F1740102AB3C22184601F00BFD119005
:100F8000019B2C33184607F0CFFE02AB3C221946DA
:100F9000019800F0E5FA61E0019BD3F81C3F002BBB
:100FA00009D1002007F080FD03460C461A46019B3C
:100FB000C3F81C2F52E0002007F076FD0A460146D8
:100FC000019BD3F81C3F9B464FF0000C0B46144688
:100FD000B3EB0B0364EB0C04019AD2F8182F114603
:100FE0004FF00002994272EB0403B4BF01230023C7
:100FF000DBB2002B32D0019B0022C3F81C2F019BD7
:101000002C334FF0FF31184607F076FE019B03F1B9
:10101000740102AB3C22184601F0BCFC1190019B0C
:101020002C33184607F080FE119B8DF84E309DF84A
:101030004E303B2B0CD89DF84E3014AA134400229E
:1010400003F8482C9DF84E3001338DF84E30EEE712
:1010500002AB3C221946019800F082FA019800F098
:1010600013F99DF84F30184615B0BDE8108800BF41
:10107000A41C020800B597B00390029101920123CD
:101080008DF85330039B2549184601F0BDF80398AD
:1010900000F0C2F9039800F039FA0346012B0CBFA7
:1010A00001230023DBB2002B01D0002331E0019BA0
:1010B0001593159B002B2AD0159B3B2B12D905AB02
:1010C0003C220299184618F0EBF805AB3C22194671
:1010D000039800F045FA159B3C3B1593029B3C336B
:1010E0000293E6E705AB3C220021184618F0B0F960
:1010F00005AB159A0299184618F0D2F805AB3C22B8
:101100001946039800F02CFA00231593D1E79DF8B7
:101110005330184617B05DF804FB00BFB41C02083A
:1011200000B583B00190019B0D49184601F06CF8A1
:10113000019B03F6D46300211846FFF73BFE0A200B
:1011400007F042FD019B03F6D46301211846FFF727
:1011500031FE0A2007F038FD00BF03B05DF804FB44
:10116000C01C020800B583B001900091019B334977
:10117000184601F049F8019B002283F8152F0198C9
:10118000FFF7CEFF019800F081FC009B9B68194699
:10119000019800F0BDFC00220E21019800F071F9C9
:1011A00000220F21019800F06CF90C21019800F049
:1011B00053F9034643F00303DBB21A460C210198AE
:1011C00000F05FF9009B1B7B1946019800F072FC50
:1011D000009B5B7B1946019800F0FEFC009B1B7D89
:1011E0001946019800F042FE009B1B6919460198C0
:1011F00000F05AFD009BDB8A1946019800F070FE52
:10120000009B1B7E1946019800F0A4FE009B9B7E6C
:101210001946019800F004FA009B5B7E002B03D076
:10122000019800F0AFFE02E0019800F0BFFE0198C7
:1012300000F018FC00BF03B05DF804FBD01C0208EE
:1012400000B585B00190019B0E49184600F0DCFF07
:10125000019800F05BF903468DF80F309DF80F30D0
:10126000012B09D09DF80F30022B05D09DF80F30CF
:10127000042B01D0012300E00023184605B05DF8DF
:1012800004FB00BFDC1C020800B583B0019001988C
:1012900000F0F6F90346184603B05DF804FB00B50C
:1012A00083B00190019800F0DDFB0123184603B0E4
:1012B0005DF804FB00B587B003900B468DF80B304A
:1012C00013468DF80A30039B93F8153FDBB2002BD1
:1012D00014BF01230023DBB2002B01D0002336E032
:1012E000039B012283F8152F00238DF8143000236F
:1012F0008DF815309DF80B308DF810309DF80A30C0
:101300008DF81130039B03F6B86300211846FFF7F0
:1013100051FD0A2007F068FC039B03F6DC5005AA88
:1013200004A9022300931346022204F0B2FE0A200D
:1013300007F05AFC039B03F6B86301211846FFF738
:1013400039FD039B002283F8152F9DF815301846B0
:1013500007B05DF804FB10B5C6B005AC20600846C8
:1013600003A90A6019460DF1130302461A700DF124
:1013700012030A461A7005AB1B6893F8153FDBB2DF
:10138000002B14BF01230023DBB2002B40D105AB9F
:101390001B68012283F8152F0DF113031B7863F0EE
:1013A0007F03DAB206AB1A700DF11203197803ABA2
:1013B00006AA501C0A46196817F072FF05AB1B6895
:1013C00003F6B86300211846FFF7F4FC0A2007F083
:1013D0000BFC05AB1B6803F6DC500DF112031B7808
:1013E0005A1C06A900230093002304F052FE0A2091
:1013F00007F0FAFB05AB1B6803F6B863012118463A
:10140000FFF7D8FC05AB1B68002283F8152F00E01E
:1014100000BF46B010BD000000B583B00190019B35
:101420000C49184600F0F0FE019B03F56F63184667
:10143000FFF782FC0346002B14BF01230023DBB21D
:10144000002B02D0019800F0EFF900BF03B05DF867
:1014500004FB00BFEC1C020800B583B001900B46F2
:101460008DF803309DF8033003F07F03DBB20022D8
:1014700019460198FFF71EFF0346184603B05DF8B2
:1014800004FB00B583B001900B468DF80330134682
:101490008DF802309DF8033063F07F03DBB29DF8D6
:1014A000022019460198FFF705FF00BF03B05DF861
:1014B00004FB00B585B001900B468DF80330134650
:1014C0008DF80230019800F049F903468DF80F308D
:1014D0009DF80F30802B02D0019800F0D7FA9DF8CC
:1014E00002209DF8033019460198FFF7CAFF9DF8C6
:1014F0000F30802B06D09DF80F301A46012101983D
:10150000FFF7BFFF00BF05B05DF804FB00B585B075
:101510000190019800F022F903468DF80F309DF8F4
:101520000F30832B01D1012316E09DF80F30852B5E
:1015300003D09DF80F30862B01D102230CE09DF8DB
:101540000F30812B01D1002306E09DF80F30802B56
:1015500001D1012300E00423184605B05DF804FB27
:1015600000B587B00390029113468DF80730039BB6
:101570002A49184600F048FE0398FFF7C7FF0346C4
:101580008DF817309DF81730012B03D09DF81730D8
:10159000042B01D100233DE0039800F063FA4022C0
:1015A00040210398FFF76DFF00220D210398FFF7FC
:1015B00068FF9DF80730029A00210398FFF7CBFEE1
:1015C000039B93F8143F002B06D19DF807301A4671
:1015D00022210398FFF755FF832201210398FFF78B
:1015E00050FF12210398FFF737FF034603F008036B
:1015F000002B0CBF01230023DBB2002B00D0F0E74F
:10160000082212210398FFF73CFF00238DF81730C2
:101610009DF80730184607B05DF804FBF81C020877
:1016200000B583B001900B468DF80330019B0F4944
:10163000184600F0E9FD9DF80330002B0AD0019810
:1016400000F0DCFC9DF803301A4622210198FFF7D8
:1016500018FF02E0019800F0BDFC019B9DF80320FB
:1016600083F8142F00BF03B05DF804FB0C1D0208C3
:1016700082B00190019B93F8143F184602B0704766
:1016800000B583B00190019B1C49184600F0BCFDD9
:101690000198FFF7D5FD0346002B0CBF0123002363
:1016A000DBB2002B01D0002323E00022402101986F
:1016B000FFF7E7FE019800F051F80346852B14BFB1
:1016C00001230023DBB2002B12D00198FFF7D0FFDB
:1016D00003461A4622210198FFF7D3FE00220D216E
:1016E0000198FFF7CEFE852201210198FFF7C9FE80
:1016F0000123184603B05DF804FB00BF241D020857
:1017000000B585B00190019B1349184600F07CFD9F
:101710000198FFF7FBFE03468DF80F309DF80F3060
:10172000012B03D09DF80F30042B01D100230EE0D4
:1017300013210198FFF790FE03468DF80E30019BB0
:10174000D3F8103FDBB29DF80E20D31ADBB2184657
:1017500005B05DF804FB00BF741D020800B585B03C
:10176000019001210198FFF777FE03468DF80F30B5
:10177000019B1B79002B40D0019B2349184600F0A8
:1017800043FD9DF80F30032B1FD0032B04DC002BEF
:101790000FD0012B13D02AE0062B22D0802B02D0B1
:1017A000052B18D023E0019B1849184600F02CFDAA
:1017B00023E0019B1649184600F026FD1DE0019B21
:1017C0001449184600F020FD17E0019B1249184605
:1017D00000F01AFD11E0019B1049184600F014FDBD
:1017E0000BE0019B0E49184600F00EFD05E0019B41
:1017F0000C49184600F008FD00BF9DF80F30184650
:1018000005B05DF804FB00BFA01D0208B01D020872
:10181000C01D0208CC1D0208DC1D0208E41D0208E0
:10182000F81D0208081E020800B585B00190019B52
:101830002249184600F0E8FC0198FFF719FF03461B
:101840001A4622210198FFF71CFE12210198FFF78A
:1018500003FE03468DF80F309DF80F301A46122113
:101860000198FFF70EFE019B1B79002B05D09DF818
:101870000F301946124817F04BFE9DF80F3003F059
:101880004003002B0DD09DF80F3003F02003002BF8
:1018900010D1019B0022C3F8102F019800F012F81C
:1018A00008E09DF80F3003F00803002B02D00198E8
:1018B00000F058F800BF05B05DF804FB181E0208E0
:1018C000301E020800B595B00190019B22491846D0
:1018D00000F09AFC03AB3C221946019800F08EF808
:1018E00003461293019B1B79002B14D01B4817F061
:1018F0000FFE00231393139A129B9A420BDA03AA4A
:10190000139B13441B781946154817F001FE139BCF
:1019100001331393EFE7019B50334FF0FF3118462B
:1019200007F0EAF9019B03F18401129A03AB184610
:1019300001F069F81299019B03F5947203AB184604
:1019400000F0BCFD019B5033184607F0EDF900BFD5
:1019500015B05DF804FB00BF441E0208581E0208C3
:101960006C1E020800B583B00190019B0B4918461C
:1019700000F04AFC019B7433184600F06AFF0346EE
:101980003B2B94BF01230023DBB2002B02D0019834
:10199000FFF776FE00BF03B05DF804FB701E02087F
:1019A00000B585B00190019B1349184600F02CFC4E
:1019B0000198FFF7A5FE0346002B0CBF012300236F
:1019C000DBB2002B02D04FF0FF3310E0019BD3F8C5
:1019D000103F5A1C019BC3F8102F00210198FFF7FC
:1019E0003BFD03468DF80F309DF80F301BB21846B3
:1019F00005B05DF804FB00BF881E020800B587B083
:101A0000039002911346ADF806300023ADF816306E
:101A1000039B1349184600F0F7FB0398FFF7C0FF3C
:101A200003468DF815300123002B13D0BDF8162086
:101A3000BDF806309A420CD0BDF81630029A134415
:101A40009DF815201A70BDF816300133ADF8163028
:101A5000E3E700BFBDF81630184607B05DF804FB99
:101A6000941E020800B583B00190019B06491846F8
:101A700000F0CAFB812201210198FFF702FD00BF9F
:101A800003B05DF804FB00BFB41E020800B583B0CC
:101A90000190019B0649184600F0B6FB8022012107
:101AA0000198FFF7EEFC00BF03B05DF804FB00BF38
:101AB000C41E020800B583B001900B468DF80330B8
:101AC000019B1249184600F09FFB9DF80330012B43
:101AD00003D802238DF8033006E09DF80330112B64
:101AE00002D911238DF803309DF80330023BDBB29D
:101AF0005BB263F07F035BB2DBB21A460921019847
:101B0000FFF7D7FC00BF03B05DF804FBD41E02084A
:101B100070B586B001900091019B009AC3F80C2F1C
:101B2000019B2B49184600F06FFB009B4FF000040F
:101B30005E0BDD04274A4FF00003284631461FF0B4
:101B4000A5FB03460C46CDE904340198FFF706FED9
:101B500003468DF80F309DF80F30802B02D001988E
:101B6000FFF794FFDDE904124FF000034FF000048B
:101B70000B0C43EA0243140CDBB21A46062101980F
:101B8000FFF77FFCDDE904124FF000034FF0000483
:101B90000B0A43EA0263140ADBB21A4607210198D2
:101BA000FFF76FFC9DF810301A4608210198FFF7E7
:101BB00068FC9DF80F30802B06D09DF80F301A4638
:101BC00001210198FFF75DFC00BF06B070BD00BFAA
:101BD000E81E02080048E80100B585B001900B46F8
:101BE0008DF80330019B2E49184600F00DFB9DF83F
:101BF0000330052B03D806238DF8033006E09DF84B
:101C000003300C2B02D90C238DF803300198FFF719
:101C1000A5FD03468DF80F309DF80F30802B02D0C4
:101C20000198FFF733FF9DF80330062B0AD1C52238
:101C300031210198FFF725FC0C2237210198FFF78D
:101C400020FC09E0C32231210198FFF71AFC0A2287
:101C500037210198FFF715FC1E210198FFF7FCFBC7
:101C600003465BB203F00F035AB29DF803301B0129
:101C70005BB213435BB2DBB21A461E210198FFF739
:101C800000FC9DF80F30802B06D09DF80F301A46CF
:101C900001210198FFF7F5FB00BF05B05DF804FBDB
:101CA000FC1E02080000000000B585B00190009104
:101CB000019B6D49184600F0A7FA00981EF0A4FB9E
:101CC00055A3D3E900231EF095FE0346002B03D055
:101CD00000238DF80F3085E000981EF095FB50A38F
:101CE000D3E900231EF086FE0346002B03D0012318
:101CF0008DF80F3076E000981EF086FB4AA3D3E9FA
:101D000000231EF077FE0346002B03D002238DF83C
:101D10000F3067E000981EF077FB45A3D3E900235E
:101D20001EF068FE0346002B03D003238DF80F300E
:101D300058E000981EF068FB3FA3D3E900231EF093
:101D400059FE0346002B03D004238DF80F3049E0E1
:101D500000981EF059FB3AA3D3E900231EF04AFE77
:101D60000346002B03D005238DF80F303AE000988E
:101D70001EF04AFB34A3D3E900231EF03BFE0346CA
:101D8000002B03D006238DF80F302BE000981EF0B7
:101D90003BFB2FA3D3E900231EF02CFE0346002BB0
:101DA00003D007238DF80F301CE000981EF02CFBA9
:101DB00029A3D3E900231EF01DFE0346002B03D008
:101DC00008238DF80F300DE000981EF01DFB24A3B2
:101DD000D3E900231EF00EFE0346002B02D0092398
:101DE0008DF80F301D210198FFF736FB03465BB2DB
:101DF00003F00F035AB29DF80F301B015BB213437F
:101E00005BB2DBB21A461D210198FFF752FB00BFFF
:101E100005B05DF804FB00BF000000000078BE4084
:101E2000000000000050C440000000000078CE40D8
:101E3000000000000050D440000000008084DE401C
:101E400000000000805CE440000000008084EE4060
:101E5000000000008084FE400000000080840E41ED
:101E60000000000080841E41181F020800B585B0E4
:101E700001900B468DF80330019B1849184600F07D
:101E8000C3F99DF80330042B03D805238DF80330E4
:101E900006E09DF80330082B02D908238DF80330A3
:101EA0009DF80330043B8DF80F301D210198FFF79A
:101EB000D3FA03465BB223F00E035AB29DF80F30FB
:101EC0005B005BB213435BB2DBB21A461D21019883
:101ED000FFF7EFFA00BF05B05DF804FB341F0208FE
:101EE00000B585B001900B46ADF80230019B184952
:101EF000184600F089F90198FFF730FC03468DF889
:101F00000F309DF80F30802B02D00198FFF7BEFDF7
:101F1000BDF802301B12DBB21A4620210198FFF7F0
:101F2000B0FABDF80230DBB21A4621210198FFF762
:101F3000A8FA9DF80F30802B06D09DF80F301A4676
:101F400001210198FFF79DFA00BF05B05DF804FB81
:101F50004C1F020800B583B001900B468DF803308A
:101F6000019B0749184600F04FF99DF803301A46C7
:101F700039210198FFF79DFA00BF03B05DF804FB1B
:101F8000681F020800B583B001901E210198FFF779
:101F900063FA034643F00403DBB21A461E2101989C
:101FA000FFF787FA00BF03B05DF804FB00B583B00C
:101FB00001901E210198FFF74FFA034623F0040316
:101FC000DBB21A461E210198FFF773FA00BF03B077
:101FD0005DF804FB00B583B001901D210198FFF767
:101FE0003BFA034623F00103DBB21A461D21019898
:101FF000FFF747FA00BF03B05DF804FB00B583B0FC
:1020000001901D210198FFF727FA034643F00103D1
:10201000DBB21A461D210198FFF733FA00BF03B067
:102020005DF804FB00B585B00390029101928DF834
:102030000330294A039B1A60039B0833184606F0B5
:102040000FFE039B2C33184606F00AFE039B503309
:10205000184606F005FE039B9DF803201A711F49E0
:10206000039800F0D1F8039B03F58C70039B943325
:102070008322194600F0A6FB039B03F58C72039B99
:10208000C3F82C21039B029AC3F83021039B019AC9
:10209000C3F83421039B03F59473184600F0FCF851
:1020A000039B03F17400039B03F6281340F25922AB
:1020B000194600F087FB039B03F18400039B03F6A2
:1020C000813340F25922194600F07CFB039B1846ED
:1020D00005B05DF804FB00BF08200208881F020855
:1020E00000B587B00390029101920E49039800F069
:1020F0008BF8039B2C334FF0FF31184606F0FCFDA4
:10210000039B7433019A1946029800F07CFC0590F9
:10211000039B2C33184606F007FE059B184607B0B4
:102120005DF804FB9C1F020800B58BB0059004917C
:102130000392039B99B2059B03F5A272059B03F5DD
:102140001263009340F2D973049800F0B8F8079036
:10215000059B1B79002B33D0039A0499244817F070
:10216000D7F9244817F0D4F900230993099A039B5F
:102170009A420BDA099B049A13441B7819461E48AD
:1021800017F0C6F9099B01330993EFE71B4817F0D5
:10219000BFF900230893089A079B9A420DD2059B2A
:1021A000D3F82029089B13441B781946144817F0CC
:1021B000AFF9089B01330893EDE7124817F0A8F92F
:1021C000059BD3F82039079A19460598FFF788FF31
:1021D0000246079B93420CBF01230023DBB2002B76
:1021E00001D0012300E0002318460BB05DF804FB8A
:1021F000A81F0208C41F0208D41F0208D81F020823
:10220000E81F0208F01F020800B583B0019000919A
:10221000019B1B79002B0FD0019B08334FF0FF313E
:10222000184606F069FD0099054817F071F9019B01
:102230000833184606F078FD00BF03B05DF804FBD4
:10224000F41F020886B0039002910192039B04934D
:1022500000238DF8173017E0049A029B534003F0D7
:102260000103002B05D0049B5B08019A53400493A3
:1022700002E0049B5B080493029B5B0802939DF8B9
:10228000173001338DF817309DF81730072BE3D93D
:10229000049B184606B0704782B00190019A137DE6
:1022A0006FF300031375019B00225A82019A137D7C
:1022B0006FF3830313750023184602B0704700B50F
:1022C0008FB0039001921A460B46ADF80A301346C0
:1022D000ADF8083002230D9300230C930023ADF8D2
:1022E0002E30BDF80A304FF6FF72934201D1002321
:1022F000E0E0019B0A930A9B05330993BDF808208F
:10230000BDF80A3002335B0005339A4201DA00233C
:10231000D0E000230D9334E0BDF808200D990C9B0C
:102320000B4405339A4201D80023C3E0039A0D9B66
:1023300013441B78FF2B09D10D9A0C9B1344099A67
:102340001344FF221A700C9B01330C93039A0D9BCC
:102350001A440D990C9B0B4409990B4412781A707E
:10236000BDF82E00039A0D9B13441B784AF201021C
:102370001946FFF767FF0346ADF82E300D9B01337A
:102380000D93BDF80A300D9A9A42C5D3BDF82E3090
:102390001B0A99B20D9A0C9B1344099A1344CAB2B2
:1023A0001A700D9A0C9B1344099A13441B78FF2B47
:1023B00009D10C9B01330C930D9A0C9B1344099A81
:1023C0001344FF221A700D9A0C9B13440133099A8F
:1023D0001344BDF82E20D2B21A700D9A0C9B1344F0
:1023E0000133099A13441B78FF2B0AD10C9B01334C
:1023F0000C930D9A0C9B13440133099A1344FF224A
:102400001A70BDF80A3002330893089A0C9B1344E3
:10241000079303238DF82D3000230C93FF238DF8B1
:102420001030089BDBB28DF811309DF81130FF2B76
:1024300009D1FF238DF812309DF82D3001338DF82E
:102440002D3001230C93089B1A0A0C9B0233D2B245
:102450000EA90B4403F8282C0C9B02330EAA13443C
:1024600013F8283CFF2B0DD10C9B03330EAA134409
:10247000FF2203F8282C9DF82D3001338DF82D30E4
:1024800002230C939DF82D30C3F105031A460A9BD5
:10249000134409939DF82D2004AB1946099816F0B2
:1024A000FFFE079A0C9B134403330693109B099A73
:1024B0001A60069B18460FB05DF804FB00B587B0A4
:1024C00003900291019200238DF8133000230593AD
:1024D00015E0039A059B13441B780199184600F0F8
:1024E000E7F803468DF812309DF91230002B03D027
:1024F0009DF812308DF81330059B01330593059A32
:10250000029B9A42E5D39DF91330184607B05DF857
:1025100004FB000000B583B0034600918DF807303E
:10252000009B1B7DC3F38103DBB2032B00F2A7806A
:1025300001A252F823F000BF9F2600084925000899
:102540009325000801260008009B1B88002B05D15D
:102550009DF807309AB2009B1A80A3E0009B1B886D
:102560001AB29DF807301B021BB213431BB29AB27A
:10257000009B1A80009A137D022161F38303137577
:10258000009B5B68184600F033F9009B00225A82DA
:1025900088E0009B1B88022B05D1009A137D43F035
:1025A0000C0313752CE0009B1B88013B9AB2009B27
:1025B0001A80009B5A689DF807301146184600F0B3
:1025C00075FA0346002B0CD1009A137D6FF3830339
:1025D0001375009A137D6FF3000313754FF0FF33EB
:1025E00061E0009B5B8A18469DF807304AF20102C1
:1025F0001946FFF727FE03469AB2009B5A8251E024
:10260000009B1B88002B32D1009A137D6FF383034C
:102610001375009A137D6FF300031375009B5B8A9B
:102620001A46009B1B7C9BB21B029BB219469DF86D
:1026300007300B439A420ED1009B9B68002B07D0BA
:10264000009B9B68009A52681046984703462AE010
:102650006FF0010327E0009BDB68002B21D0009B7B
:10266000DB68009A52681046984703461BE0009BBF
:102670009DF807201A74009B00221A8011E0009A2E
:10268000137D6FF383031375009B00221A80009A59
:10269000137D6FF3000313756FF0020303E000BFB7
:1026A00000E000BF0023184603B05DF804FB00BF44
:1026B00000B583B0034600918DF807309DF80730D0
:1026C000FF2B1AD1009B1B7D03F00203DBB2002B12
:1026D0000CD0009A137D6FF3410313759DF80730FA
:1026E00000991846FFF716FF034638E0009A137D5D
:1026F00043F002031375002331E0009B1B7D03F0C0
:102700000203DBB2002B23D0009A137D012161F379
:1027100083031375009B00221A80009A137D6FF3C8
:1027200041031375009B1B7D03F00103DBB2002BFB
:1027300009D0009BDB68002B05D0009BDB68009A6A
:10274000526810469847009A137D43F001031375B1
:102750009DF8073000991846FFF7DCFE034618463F
:1027600003B05DF804FB86B0034602910192ADF818
:102770000E30BDF80E30029A13440593059B002BD2
:1027800007DA019BDB689AB2059B9BB213449BB2AC
:1027900008E0059B019AD268B3FBF2F102FB01F25B
:1027A0009B1A9BB2184606B0704782B00190009108
:1027B000019A009B9A4201D8019B00E0009B1846B9
:1027C00002B0704700B585B0039002911346ADF892
:1027D0000630039B029A1A60BDF80620039BDA605C
:1027E000039800F005F80023184605B05DF804FBD7
:1027F00082B00190019B00225A60019B00229A60E6
:1028000000BF02B0704782B00190019B5A68019BE3
:102810009B689A4201D1012300E00023184602B0D0
:10282000704700B583B00190019B9B689BB2019AF1
:1028300001211846FFF797FF03461A46019B5B6884
:102840009A4201D1012300E00023184603B05DF84D
:1028500004FB2DE9100884B00190019B9A68019B4C
:102860005B68D31A4FF00004CDE90234DDE902348D
:10287000002B74F100030CDA019BDB689B464FF0E0
:10288000000CDDE902121BEB01034CEB0204CDE965
:102890000234029B184604B0BDE81008704710B51A
:1028A00082B00190019BDC680198FFF7D2FF0346DC
:1028B000E31A013B184602B010BD00B583B0019089
:1028C0000091019B002B22D00098FFF7C2FF034626
:1028D00019460198FFF769FF0190009B5B689BB266
:1028E0000199009A1846FFF73EFF03461A46009BDF
:1028F0005A60009B9A68009B5B689A4208D1009BD3
:1029000000225A60009B5A68009B9A6000E000BF5A
:1029100003B05DF804FB10B586B0039002910192FC
:102920000298FFF796FF034619460198FFF73DFF0F
:102930000190029BDC68029B5B689BB2029A0021BB
:102940001846FFF710FF0346E31A19460198FFF7F0
:102950002CFF0590029B1C68029B5B689BB2029A4D
:1029600000211846FFF7FFFE03462344059A194647
:10297000039816F095FC039A059BD018029B1968E2
:10298000019A059BD31A1A4616F08AFC019B184639
:1029900006B010BD00B585B0039002910192019A76
:1029A00002990398FFF7B7FF019002990198FFF78A
:1029B00084FF019B184605B05DF804FB00B583B0A9
:1029C000019000910098FFF71EFF0346002B01D0F5
:1029D000002314E0009B1A68009B5B6813441A787C
:1029E000019B1A70009B5B689BB2009A01211846FC
:1029F000FFF7B9FE03461A46009B5A6001231846AA
:102A000003B05DF804FB10B586B00390029101920B
:102A10000298FFF706FF0346002B01D0002342E097
:102A20000298FFF73CFF034619460198FFF7BDFEE9
:102A30000190029BDC68029B9B689BB2029A00217A
:102A40001846FFF790FE0346E31A19460198FFF770
:102A5000ACFE0590029B1C68029B9B689BB2029A8D
:102A600000211846FFF77FFE03462344059A039989
:102A7000184616F015FC029B1868039A059BD1189E
:102A8000019A059BD31A1A4616F00AFC029B9B6812
:102A90009BB20199029A1846FFF765FE03461A4653
:102AA000029B9A60019B184606B010BD00B583B02A
:102AB000034600918DF807300098FFF7B2FE0346F9
:102AC000002B01D0002314E0009B1A68009B9B6838
:102AD00013449DF807201A70009B9B689BB2009AD4
:102AE00001211846FFF73FFE03461A46009B9A60F5
:102AF0000123184603B05DF804FB000000B585B063
:102B000001900B468DF80330019B03F1006303F540
:102B100000230193019B0E4A934203D9019B0D4A66
:102B2000934201D901230FE00BF0B8FC9DF803306C
:102B30001A46019900200BF0D5FC03468DF80F30A2
:102B40000BF0C4FC9DF80F30184605B05DF804FB8F
:102B5000FFFF0708FF0F080884B0019000238DF8DD
:102B60000F30019B03F1006303F500230193019BE8
:102B7000084A934203D9019B074A934201D9002393
:102B800005E0019B1B688DF80F309DF80F3018464B
:102B900004B07047FFFF0708FF0F080800B587B0B3
:102BA00003900291019200230593059A019B9A429A
:102BB0000DDA059A039BD018059B029A13441B78E3
:102BC0001946FFF79BFF059B01330593EDE70123B2
:102BD000184607B05DF804FB10B586B0039002916B
:102BE000019200230593059A019B9A420EDA059AF9
:102BF000039BD118059B029AD4180846FFF7ACFF37
:102C000003462370059B01330593ECE70123184627
:102C100006B010BD00B59DB01C2296490020FFF7FC
:102C2000DBFF4FF000731B931B9B93FAA3F31A93E4
:102C30001A9BB3FA83F35BB243F040035BB2DBB29F
:102C40005B11012B02D18C4B1B6801E08A4B5B6B43
:102C50004FF000721992199A92FAA2F21892189AE9
:102C6000B2FA82F252B242F0400252B2D2B202F052
:102C70001F02D34003F00103002B14BF01230023E4
:102C8000DBB2002B04D07B4B1B680133794A136005
:102C90004FF080631793179B93FAA3F31693169B39
:102CA000B3FA83F35BB243F040035BB2DBB25B1178
:102CB000012B02D1704B1B6801E06F4B5B6B4FF037
:102CC00080621592159A92FAA2F21492149AB2FAAC
:102CD00082F252B242F0400252B2D2B202F01F026D
:102CE000D34003F00103002B14BF01230023DBB208
:102CF000002B04D05F4B5B6801335E4A53604FF09A
:102D000000631393139B93FAA3F31293129BB3FAEA
:102D100083F35BB243F040035BB2DBB25B11012B88
:102D200002D1554B1B6801E0534B5B6B4FF00062C7
:102D30001192119A92FAA2F21092109AB2FA82F2B9
:102D400052B242F0400252B2D2B202F01F02D3405D
:102D500003F00103002B14BF01230023DBB2002B7F
:102D600004D0444B9B680133424A93604FF0805338
:102D70000F930F9B93FAA3F30E930E9BB3FA83F377
:102D80005BB243F040035BB2DBB25B11012B02D1BB
:102D9000394B1B6801E0384B5B6B4FF080520D9252
:102DA0000D9A92FAA2F20C920C9AB2FA82F252B2F4
:102DB00042F0400252B2D2B202F01F02D34003F0FE
:102DC0000103002B14BF01230023DBB2002B04D02E
:102DD000284BDB680133274AD3604FF000530B9335
:102DE0000B9B93FAA3F30A930A9BB3FA83F35BB2A8
:102DF00043F040035BB2DBB25B11012B02D11E4BEF
:102E00001B6801E01C4B5B6B4FF000520992099A62
:102E100092FAA2F20892089AB2FA82F252B242F000
:102E2000400252B2D2B202F01F02D34003F00103BB
:102E3000002B14BF01230023DBB2002B04D00D4B69
:102E40001B6901330B4A13614FF080430793079BC3
:102E500093FAA3F30693069BB3FA83F35BB243F0B2
:102E600040035BB2DBB25B11012B07D1024B1B6845
:102E700006E000BF440E002000380240334B5B6B7D
:102E80004FF080420592059A92FAA2F20492049AB7
:102E9000B2FA82F252B242F0400252B2D2B202F020
:102EA0001F02D34003F00103002B14BF01230023B2
:102EB000DBB2002B04D0264B5B690133244A5361FB
:102EC0004FF000430393039B93FAA3F30293029BF7
:102ED000B3FA83F35BB243F040035BB2DBB25B1146
:102EE000012B02D1194B1B6801E0184B5B6B4FF0B3
:102EF00000420192019A92FAA2F20092009AB2FA6A
:102F000082F252B242F0400252B2D2B202F01F023A
:102F1000D34003F00103002B14BF01230023DBB2D5
:102F2000002B04D00A4B9B690133094A9361074B7C
:102F30005B6B064A43F0807353631C2204490020F4
:102F4000FFF72CFE00BF1DB05DF804FB0038024007
:102F5000440E002008B5174816F0DAFA164B1B6825
:102F60001946164816F0D4FA134B5B6819461448F4
:102F700016F0CEFA104B9B681946124816F0C8FAA4
:102F80000D4BDB681946104816F0C2FA0A4B1B6954
:102F900019460E4816F0BCFA074B5B6919460C48F7
:102FA00016F0B6FA044B9B6919460A4816F0B0FAB7
:102FB00000BF08BD10200208440E00202020020897
:102FC000402002086020020880200208A020020899
:102FD000C0200208E0200208014B9B681846704799
:102FE000440E002000B583B001900091019B012B9D
:102FF00008D1009B4FF6FF72934203D12D21034865
:10300000FDF77EFE00BF03B05DF804FB600E0020FC
:1030100008B54FF6FF710120FFF7E4FF08BD00B5CA
:1030200083B00190019813F0B9FB0346184603B032
:103030005DF804FB00B583B00190019813F038FCF3
:103040000346184603B05DF804FB000010B58AB0D3
:103050000390029111461A460B46ADF8063013460E
:10306000ADF80430039B9DF838201A70D82005F085
:10307000D9FC03461C46BDF90420BDF906301946AB
:10308000204602F0E9FB039B5C60502005F0CAFC7F
:1030900003461C46BDF930301946204602F0AEFD0D
:1030A000039B9C60039B029A1A61039B1D4A5A6111
:1030B000039B1C4A9A61039B0122DA611A490D980D
:1030C0001DF072FE03461A46039B5A62039B9C68DE
:1030D000164B08930023099304A808AB0CCB039963
:1030E00001F0CCFA04AB1946204602F0F9FD04AB1E
:1030F0001846FDF706FC039800F08AFE039800F0DE
:1031000051FE039800F072FE039800F07DFF0398D3
:1031100001F03CF80021039800F003FA039B1846E5
:103120000AB010BD0AD7233C0000614529340008CD
:1031300030B58FB0019000914FF07E530D93974BB7
:103140000C93974B0B934FF080430A934FF07E53B1
:103150000993019801F0ADF80346ADF82230BDF8AF
:1031600022305B129BB203F00103ADF82030BDF8B2
:103170002230DB119BB203F00103ADF81E30BDF825
:1031800022309B119BB203F00103ADF81C30BDF857
:1031900022305B109BB203F00103ADF81A30BDF88A
:1031A000223003F00103ADF81830BDF82020BDF83F
:1031B0001E3013449AB2BDF81C301344ADF81630DB
:1031C000019800F0F1F90490019800F069FA039079
:1031D000744B1B78012B03D1724B02221A70BDE095
:1031E000BDF81A30002B03D1BDF81830002B03D0E6
:1031F0006C4B00221A70B1E06A4B1B78002B0DD18A
:10320000694B1B684FF0804118461DF089FF03464B
:10321000002B03D0634B02221A709FE0614B1B7896
:10322000022B0BD14FF07E5103981DF05BFF03463C
:10323000002B03D05B4B03221A708FE0594B1B7895
:10324000032B0DD1584B1B684FF0000118461DF0A1
:1032500067FF0346002B03D0524B02221A707DE019
:10326000504B1B78022B0BD14FF07E5104981DF070
:1032700039FF0346002B03D04A4B04221A706DE03D
:10328000484B1B78022B0ED1444904981DF048FF8F
:103290000346002B07D0BDF81630002B03D0414B5E
:1032A00005221A705AE03F4B1B78042B0AD13B4988
:1032B00004981DF035FF0346002B03D0394B022242
:1032C0001A704BE0374B1B78052B0CD1BDF816302C
:1032D000002B08D1334B02221A704FF07E51019817
:1032E00000F0E4FE3AE02F4B1B78052B0FD12E4B5C
:1032F0001B682B4918461DF013FF0346002B06D010
:10330000284B06221A70019800F061FF26E0254B39
:103310001B78062B22D1244B1B684FF00001184666
:103320001DF0FEFE0346002B18D01E4B05221A701E
:10333000019800F06DFF0246019B9A62019B1B7889
:10334000002B0BD0019B9B6A18461DF07FF80346AB
:103350000C461A462346154816F0DAF8114B1A782F
:10336000134B1B789A4204D00F4B4FF000021A60A7
:1033700009E00D4B1B68009918461DF00DFC034633
:103380001A46094B1A60074B1A78094B1A70054BFD
:103390001A78074B1B789A420CD019E7000040407E
:1033A00000007042F80200207C0E0020002102087C
:1033B000F90200201A4B1B78002B03D10121019840
:1033C00000F0AFF8164B1B78042B03D101210198B4
:1033D00000F0A7F8124B1B78022B03D100210198B3
:1033E00000F09FF8019800F0A1FE0246019BDA620E
:1033F000019B1B78002B0FD0094B1B781D46019BAE
:10340000DB6A18461DF022F803460C461A4623468E
:103410002946044816F07CF800BF0FB030BD00BF4D
:10342000F80200200C21020882B00190019B0122C9
:103430001A7300BF02B0704700B587B003900B4607
:103440008DF80B301346ADF808309DF80B308DF831
:103450001030BDF80830DBB28DF81130BDF90830FE
:103460001B12DBB28DF8123000230593039B5868C2
:10347000039B196904AA00230093032302F058FA5E
:103480000246059B13440593059B002B01D10123A4
:1034900000E00023184607B05DF804FB00B589B0D2
:1034A00005900B4603928DF8133000238DF81830E9
:1034B00000238DF8193001230793059B5868059B5D
:1034C00019690DF1130200230093012302F030FA71
:1034D0000246079B13440793059B5868059B19698F
:1034E00006AA00230093022302F054FA0246079B27
:1034F000134407939DF819309BB21B029AB29DF8B2
:1035000018309BB213449BB21AB2039B1A80079BDC
:10351000002B01D1012300E00023184609B05DF81B
:1035200004FB00B585B001900B468DF803300023F5
:10353000ADF80E309DF80330002B17D00DF10E03BF
:103540001A4614210198FFF7A9FFBDF80E3043F485
:1035500080739BB2ADF80E30BDF80E301BB21A4628
:1035600014210198FFF768FF012316E00DF10E0307
:103570001A4614210198FFF791FFBDF80E3023F48D
:1035800080739BB2ADF80E30BDF80E301BB21A46F8
:1035900014210198FFF750FF0123184605B05DF88C
:1035A00004FB00000000000030B58BB00190002348
:1035B000ADF80E300DF10E031A4640210198FFF7C9
:1035C0006DFF334B0993BDF90E3018461DF098FB83
:1035D0000346099918461DF0E7FB034618461CF000
:1035E00035FF04460D46BDF90E3018461CF01CFF91
:1035F00002460B4622A1D1E900011CF0C7FD02469C
:103600000B46204629461DF0A3F803460C461846F3
:1036100021461DF06BFA034608931D4B07931D4B83
:1036200006931D4B05931A4908981DF071FC03463B
:103630001846FFF7F4FC0346174918461DF0B4FB83
:103640000346144918461DF0A7FA034619461348C5
:103650001DF05EFC0346049304981CF0F7FE0AA3D9
:10366000D3E900231CF092FD03460C461846214680
:103670001DF03CFA034618460BB030BDAFF3008096
:10368000000000004055D5406666666666127140CF
:1036900000401C4600B056453313954314097A493F
:1036A00030B585B001900023ADF80E300DF10E035A
:1036B0001A463A210198FFF7F1FEBDF90E3018467F
:1036C0001DF01EFB034618461CF0C0FE10A3D3E9F4
:1036D00000231CF013FF03460C4625461C46019BA5
:1036E000DB6918461DF00CFB034618461CF0AEFEC5
:1036F00002460B46204629461CF000FF03460C46B6
:10370000184621461DF0F2F90346184605B030BDB3
:103710005A98342F4F33293F30B585B0019000239C
:10372000ADF80E300DF10E031A463D210198FFF75A
:10373000B5FEBDF90E3018461DF0E2FA03461846F4
:103740001CF084FE0EA3D3E900231CF0D7FE034631
:103750000C4625461C46019B9B6918461CF076FECC
:1037600002460B46204629461CF0F2FF03460C4653
:10377000184621461DF0BAF90346184605B030BD7B
:10378000E95622999193B83E10B584B00190002378
:10379000ADF80E300DF10E031A463B210198FFF7EC
:1037A0007DFEBDF90E3018461DF0AAFA03461846F4
:1037B0001CF04CFE08A3D3E900231CF09FFE034637
:1037C0000C46184621461DF091F90346184604B0F0
:1037D00010BD00BFAFF300804FCAA48636005B3F28
:1037E00010B584B001900023ADF80E300DF10E033A
:1037F0001A463C210198FFF751FEBDF90E301846DC
:103800001DF07EFA034618461CF020FE08A3D3E9FB
:1038100000231CF073FE03460C46184621461DF09B
:1038200065F90346184604B010BD00BFAFF3008031
:103830004FCAA48636005B3F30B585B001900023A7
:10384000ADF80E300DF10E031A463E210198FFF738
:1038500025FEBDF90E3018461DF052FA03461846F3
:103860001CF0F4FD0EA3D3E900231CF047FE034631
:103870000C4625461C46019B5B6918461CF0E6FD7C
:1038800002460B46204629461CF062FF03460C46C2
:10389000184621461DF02AF90346184605B030BDEA
:1038A000E95622999193B83E10B584B00190002357
:1038B000ADF80E300DF10E031A463F210198FFF7C7
:1038C000EDFDBDF90E3018461DF01AFA03461846F4
:1038D0001CF0BCFD0CA3D3E900231CF057FC0346ED
:1038E0000C46184621460AA3D3E900231CF030FFFA
:1038F00003460C46184621461DF0F8F803461846C4
:1039000004B010BDAFF30080000000000075C74098
:10391000CDCCCCCCCCCC464030B585B0019000911C
:103920004FF0000100981DF0FBFB0346002B3AD03E
:1039300000981CF08BFD04460D46019B9B691846C0
:103940001CF084FD02460B4619A1D1E900011CF0D0
:10395000FFFE02460B46204629461DF04BF8034663
:10396000002B20D0019B9B69009918461DF01CFA82
:10397000034618461CF06AFD0FA3D3E900231CF090
:10398000E7FE03460C46184621461DF08FF8034615
:10399000ADF80E30BDF90E301A461A210198FFF726
:1039A0004BFD012300E00023184605B030BD00BFE9
:1039B000FCA9F1D24D62A03FFCA9F1D24D62503F6B
:1039C00030B585B001904FF0000303930DF10A0369
:1039D0001A461A210198FFF761FDBDF90A3001333B
:1039E00018461DF08DF9034618461CF02FFD10A354
:1039F000D3E900231CF082FD03460C4625461C46F5
:103A0000019B9B6918461CF021FD02460B4620468F
:103A100029461CF09DFE03460C46184621461DF023
:103A200065F803460393039B184605B030BD00BFFD
:103A3000FCA9F1D24D62503F10B584B001900091C5
:103A400000981CF003FD20A3D3E900231CF0E6FF3F
:103A50000346002B33D000981CF0F8FC1CA3D3E9DC
:103A600000231CF0BDFF0346002B28D000981CF05B
:103A7000EDFC15A3D3E900231CF088FB03460C469C
:103A8000184621464FF00002134B1CF037FD034649
:103A90000C46184621461CF0E1FF0346ADF80E30F7
:103AA000BDF80E3003F01F03ADF80E30BDF90E3037
:103AB0001A461B210198FFF7BFFC012300E00023F9
:103AC000184604B010BD00BFCDCCCCCCCC4C0B40C4
:103AD000CDCCCCCCCCCC1040000054400000000039
:103AE00010B584B0019000914FF0000100981DF0D6
:103AF00017FB0346002B20D0154900981DF0F2FA61
:103B00000346002B19D000981CF0A0FC0EA3D3E9AB
:103B100000231CF0F3FC03460C46184621461CF01B
:103B2000C5FF0346ADF80E30BDF90E301A461D2113
:103B30000198FFF781FC012300E00023184604B040
:103B400010BD00BFAFF30080000000000020AC40BB
:103B5000000090410000000010B584B00190009179
:103B60004FF0000100981DF0DBFA0346002B20D037
:103B7000154900981DF0B6FA0346002B19D000989D
:103B80001CF064FC0EA3D3E900231CF0B7FC034631
:103B90000C46184621461CF089FF0346ADF80E304E
:103BA000BDF90E301A461E210198FFF745FC01238E
:103BB00000E00023184604B010BD00BFAFF3008042
:103BC000000000000020AC40000090410000000018
:103BD00010B584B0019000914FF0000100981DF0E5
:103BE0009FFA0346002B24D000981CF02FFC14A34E
:103BF000D3E900231CF0F4FE0346002B19D00098F3
:103C00001CF024FC10A3D3E900231CF0A1FD034603
:103C10000C46184621461CF021FF0346ADF80E3035
:103C2000BDF90E301A462E210198FFF705FC01233D
:103C300000E00023184604B010BD00BFAFF30080C1
:103C4000CDCCCCCCCCCC10405A98342F4F33293F1C
:103C500010B584B0019000914FF0000100981DF064
:103C60005FFA0346002B31D000981CF0EFFB1AA33B
:103C7000D3E900231CF0BEFE0346002B26D0019B97
:103C80005B69009918461DF08FF8034618461CF032
:103C9000DDFB13A3D3E900231CF05AFD03460C46B9
:103CA000184621461CF002FF0346ADF80E30BDF861
:103CB0000E3003F03F03ADF80E30BDF90E301A465A
:103CC00015210198FFF7B8FB012300E000231846F7
:103CD00004B010BDAFF300809A9999999999094061
:103CE000FCA9F1D24D62403F10B586B00190009121
:103CF0004FF0000100981DF013FA0346002B43D04B
:103D0000234900981DF0F8F90346002B3CD0214BC5
:103D10000593214B0493049900981DF045F8034640
:103D20001C46049905981CF037FF034619462046A7
:103D30001DF0EEF80346039303981CF087FB4FF049
:103D40003332164B1CF004FD03460C461846214640
:103D50004FF00002124B1CF019FA03460C461846AD
:103D600021461CF0A3FE0346ADF80A30BDF80A3028
:103D7000DBB2ADF80A30BDF90A301A4616210198B7
:103D8000FFF75AFB012300E00023184606B010BDE0
:103D90000000104200009343000020413333733F82
:103DA0000000F03F00B583B001904FF07E510198C4
:103DB000FFF7B2FD0B490198FFF73EFE4FF07E5131
:103DC0000198FFF78DFE4FF081410198FFF7C4FE87
:103DD00005490198FFF7FCFE0123184603B05DF882
:103DE00004FB00BF66666640CDCC4C4000B583B096
:103DF00001904FF080410198FFF72AFF4FF0824178
:103E00000198FFF771FF0123184603B05DF804FB2A
:103E100000B585B001900023ADF80E300DF10E0312
:103E20001A4614210198FFF739FBBDF80E3043F014
:103E300010039BB2ADF80E30BDF80E301BB21A461F
:103E400014210198FFF7F8FA0123184605B05DF830
:103E500004FB00B585B001900023ADF80E300DF1E4
:103E60000E031A4614210198FFF718FBBDF80E3017
:103E700023F010039BB2ADF80E30BDF80E301BB22C
:103E80001A4614210198FFF7D7FA0123184605B006
:103E90005DF804FB00B585B001900B46ADF802302B
:103EA0000023ADF80E300DF10E031A460D210198D6
:103EB000FFF7F4FABDF80E301AB2BDF80230134322
:103EC0001BB29BB2ADF80E30BDF80E301BB21A46D5
:103ED0000D210198FFF7B0FA0123184605B05DF8EF
:103EE00004FB00B585B001900B46ADF8023000230D
:103EF000ADF80E300DF10E031A460D210198FFF7B3
:103F0000CDFABDF80230DB431AB2BDF80E301BB259
:103F100013401BB29BB2ADF80E30BDF80E301BB291
:103F20001A460D210198FFF787FA0123184605B0BC
:103F30005DF804FB00B585B001900B46ADF802308A
:103F40000023ADF80E300DF10E031A460D21019835
:103F5000FFF7A4FABDF80E301AB2BDF802301340D4
:103F60001BB29BB2ADF80E30BDF80E301A46BDF94B
:103F700002309A4201D1012300E00023184605B027
:103F80005DF804FB00B585B001901C490198FFF76E
:103F900081FF0198FFF73CFF00230393019B1B7BEC
:103FA000DBB283F00103DBB2002B0AD0012004F066
:103FB0000BFE039B01330393039BC82B00DCEDE74F
:103FC00000BF019B00221A730C490198FFF7B2FF52
:103FD0000346002B03D00A4815F09AFA02E009487C
:103FE00015F096FA05490198FFF77BFF0198FFF756
:103FF00030FF0123184605B05DF804FB0080FFFF89
:10400000382102085C21020830B585B00190019B7F
:104010005B6A254918461CF07BFF0346039303980F
:104020001CF014FA1EA3D3E900231CF067FA034620
:104030000C4625461C46019B9B6918461CF006FA57
:1040400002460B46204629461CF058FA03460C4609
:104050001846214602460B461CF09AF803460C46C9
:10406000184621461CF042FD034602930298FEF7D3
:10407000E1FF034618461DF099F803469AB2019BEA
:104080001A84019B1B8C1BB21A4612210198FFF760
:10409000D3F90123184605B030BD00BFAFF300804F
:1040A000D7A3703DAA46C04000FF7F4710B584B03B
:1040B000019000914FF07E5100981DF031F80346B9
:1040C000002B07D14FF0000100981DF00BF80346BC
:1040D000002B01D0002321E000981CF0B7F94FF02D
:1040E0000002104B1CF00AFA03460C461846214603
:1040F0004FF000020C4B1CF04BF803460C461846E0
:1041000021461CF0D3FC0346ADF80E30BDF90E304D
:104110001A4613210198FFF78FF90123184604B0BE
:1041200010BD00BF0000E0400000D04010B584B0DA
:1041300001900DF10E031A4613210198FFF7AEF915
:10414000BDF80E3018461CF0D7FD034618461CF08B
:104150007DF94FF000020B4B1CF018F803460C469B
:10416000184621464FF00002074B1CF0F1FA0346B7
:104170000C46184621461CF0B9FC0346184604B00C
:1041800010BD00BF0000D0400000E04000B585B089
:1041900001900023ADF80E300DF10E031A461421E4
:1041A0000198FFF77BF9BDF80E3043F004039BB292
:1041B000ADF80E30BDF80E301BB21A46142101982E
:1041C000FFF73AF90123184605B05DF804FB00B586
:1041D00085B001900023ADF80E300DF10E031A46A4
:1041E00014210198FFF75AF9BDF80E3043F020036F
:1041F0009BB2ADF80E30BDF80E301BB21A4614213A
:104200000198FFF719F90123184605B05DF804FB82
:1042100030B585B001900DF10E031A464121019889
:10422000FFF73CF9BDF90E3018461CF069FD024657
:10423000019B9B69194610461CF0B6FD03461846C3
:104240001CF004F94FF000020F4B1CF081FA0346FA
:104250000C4625461C46019BDB6918461CF050FDA8
:10426000034618461CF0F2F802460B462046294643
:104270001CF044F903460C46184621461CF036FC57
:104280000346184605B030BD00407F4000B585B0FC
:1042900001900023ADF80E300DF10E031A463521C2
:1042A0000198FFF7FBF8BDF80E30184605B05DF831
:1042B00004FB00B585B001900023ADF80E300DF180
:1042C0000E031A4634210198FFF7E8F8BDF80E30C6
:1042D000184605B05DF804FB00B585B001900023D9
:1042E000ADF80E300DF10E031A4639210198FFF793
:1042F000D5F8BDF80E30184605B05DF804FB00B5E2
:1043000085B001900023ADF80E300DF10E031A4672
:1043100029210198FFF7C2F8BDF80E3003F007031A
:104320009BB2184605B05DF804FB00B585B001905E
:104330000023ADF80E300DF10E031A46142101983A
:10434000FFF7ACF8BDF80E30184605B05DF804FB79
:1043500000B585B001900023ADF80E300DF10E03CD
:104360001A4643210198FFF799F8BDF80E30184618
:1043700005B05DF804FB00002DE9F04391B00B900F
:104380000B98FFF796FF0346ADF83E300B98FFF70A
:104390007DFF0346ADF83C300B98FFF79DFF0346C9
:1043A000ADF83A300B98FFF7AAFF0346ADF8383066
:1043B0000B98FFF7BAFF0346ADF836300B98FFF7BE
:1043C000C7FF0346ADF83430994815F0A1F8BDF8A1
:1043D0003C30DB1003F00101BDF83C309B1003F0D2
:1043E0000102BDF83C305B1003F00100BDF83C3029
:1043F00003F00103009303468E4815F089F8BDF8D9
:104400003E309B1203F0010CBDF83E305B1203F00E
:10441000010EBDF83E301B1203F00108BDF83E301E
:10442000DB1103F00103BDF83E20921102F00102FE
:10443000BDF83E10491101F00101BDF83E00001128
:1044400000F00100BDF83E40E41004F00104BDF8A6
:104450003E50AD1005F00105BDF83E60761006F047
:104460000106BDF83E7007F001070797069605950F
:104470000494039002910192009343467246614670
:104480006D4815F045F8BDF838309B1003F0010178
:10449000BDF838305B1003F00102BDF8383003F08E
:1044A0000203664815F034F8BDF836301B1203F0ED
:1044B0000101BDF836305B1103F00100BDF8363064
:1044C0001B1103F00104BDF83630DB1003F00103CB
:1044D000BDF83620921002F00102019200932346AB
:1044E0000246574815F014F8BDF83A305B1303F054
:1044F000010EBDF83A30DB1203F00108BDF83A3086
:104500009B1203F00109BDF83A305B1203F001037E
:104510000A93BDF83A20121202F00102BDF83A10D7
:10452000891101F00101BDF83A00401100F00100CD
:10453000BDF83A40241104F00104BDF83A50ED10E2
:1045400005F00105BDF83A60B61006F00106BDF8A9
:104550003A707F1007F00107BDF83AC00CF0010374
:10456000089307970696059504940390029101928B
:104570000A9B00934B4642467146324814F0C8FFEE
:10458000314814F0C5FFBDF834301B1203F00F039F
:10459000082B39D801A252F823F000BFC14500080A
:1045A000C9450008D1450008D9450008E145000883
:1045B000E9450008F1450008F945000801460008F2
:1045C000224814F0A5FF23E0214814F0A1FF1FE0CA
:1045D000204814F09DFF1BE01F4814F099FF17E0DE
:1045E0001E4814F095FF13E01D4814F091FF0FE0F2
:1045F0001C4814F08DFF0BE01B4814F089FF07E006
:104600001A4814F085FF03E0194814F081FF00BF39
:10461000184814F07DFFBDF8343003F00F0319463D
:10462000154814F075FF00BF11B0BDE8F08300BF5E
:1046300080210208B421020818220208FC22020884
:1046400054230208BC230208A4240208BC24020844
:10465000D4240208EC240208042502081C250208C0
:1046600034250208502502086C2502088C25020812
:10467000A4250208B8250208BC25020800B585B0AB
:1046800003900291694681E80C006B460CCB0299BD
:10469000039800F004F8039805B05DF804FB00B53A
:1046A00089B003900291694681E80C0005A86B4629
:1046B0000CCB029900F00AF805AB1946039800F0FC
:1046C00019F8039B184609B05DF804FB84B0039009
:1046D0000291694681E80C00039B1A466B4693E8F9
:1046E000030082E80300039B029A9A60039B18462A
:1046F00004B0704700B583B00190009110220021F2
:10470000019814F0A5FE019B19460C20FBF706FE4C
:104710000346002B03D0009A07CA83E80700019BD9
:10472000024ADA6000BF03B05DF804FBD02502083E
:1047300000B583B00190019800F01DF800BF03B0F0
:104740005DF804FB00B583B001900091019B194610
:104750000C20FBF7E3FD0346002B03D0009A07CAA9
:1047600083E8070000BF03B05DF804FB82B001904E
:1047700000BF02B0704700B583B00190019B9B68F9
:10478000019A526852109918019B5B6803F001036B
:10479000002B0BD0019B9B68019A52685210134466
:1047A0001B68019A126813441B6801E0019B1B6897
:1047B0000846984700BF03B05DF804FB00B583B01E
:1047C00001900B46ADF80230019B1A46002313609E
:1047D00053609360D360136153619361019BBDF992
:1047E00002201146184602F089F9019B184603B0D1
:1047F0005DF804FB00B583B001900B46ADF80230C4
:104800000A4A019B1A60019B2433184604F028FAD7
:10481000019B0433BDF902201146184608F082FFBF
:10482000019B184603B05DF804FB00BF0026020898
:1048300000B583B001900091019B1B6808331B6891
:1048400001989847019B0433009918460FF058F8D7
:10485000019B1B680C331B680198984700BF03B08D
:104860005DF804FB00B583B00190064A019B1A6015
:10487000019B2433184604F069FA019B184603B0E3
:104880005DF804FB0026020800B583B00190019892
:10489000FFF7E8FF019804F0EDF8019B184603B01C
:1048A0005DF804FB00B583B00190019B24334FF009
:1048B000FF31184604F020FA00BF03B05DF804FB96
:1048C00000B583B00190019B2433184604F02CFA04
:1048D00000BF03B05DF804FB00B583B001900B4648
:1048E000ADF80230019B00221A7603F03DFA019BDD
:1048F000BDF902201146184610F05EFD03F080FA63
:10490000019B184603B05DF804FB00B583B001902D
:10491000009103F029FA019800F01CF8019B00991E
:10492000184610F02BFE03F06BFA00BF03B05DF8E1
:1049300004FB00B583B00190009103F015FA019BD0
:104940000099184610F0BDFE03F05AFA00BF03B0FC
:104950005DF804FB00B583B00190019B1B7E83F0E2
:104960000103DBB2002B04D002F0CCF9019B012241
:104970001A7600BF03B05DF804FB10B584B0039055
:10498000084611461A460346ADF80A300B46ADF804
:1049900008301346ADF806301C2004F043F80346F7
:1049A0001C46BDF90A3019462046FFF707FF039B56
:1049B0001C601C2004F036F803461C46BDF9083084
:1049C00019462046FFF788FF039B5C60482004F0EF
:1049D00029F803461C46BDF9063019462046FFF764
:1049E00009FF039B9C60039800F01CF84FF07E5178
:1049F000039800F025F84FF07C51039800F041F83F
:104A0000039B184604B010BD00B583B00190019B14
:104A10001B6801211846FCF7CDF90123184603B0A5
:104A20005DF804FB00B583B00190019B1B68002179
:104A30001846FCF7BFF90123184603B05DF804FBE4
:104A400000B583B0019000914FF0000100981CF078
:104A50005DFB0346002B0FD04FF07E5100981CF0F9
:104A60004BFB0346002B07D0019B9B68009918461F
:104A7000FFF7DEFE012300E00023184603B05DF8D7
:104A800004FB00B583B0019000914FF00001009845
:104A90001CF03CFB0346002B15D04FF07E510098D4
:104AA0001CF02AFB0346002B0DD0019B5B6800998C
:104AB0001846FFF72AFF019B5B6801211846FFF7A4
:104AC00038FF012300E00023184603B05DF804FB23
:104AD00030B585B0524814F01BFD524B02934FF095
:104AE00000015148FFF7ACFF4FF000014E48FFF7BF
:104AF000C8FF4D48FFF788FF4FF000014B48FFF714
:104B00009FFF4FF000014948FFF7BBFF4748FFF701
:104B10007BFF4FF000030393454804F03FF80298F1
:104B20001BF094FC04460D4603981BF08FFC38A341
:104B3000D3E900231BF0E2FC02460B46104619465F
:104B400011F0E4FD4FF000023A4B1BF021FB02464E
:104B50000B46204629461BF0D1FC03460C4618465E
:104B600021464FF000024FF080431BF0F1FD034659
:104B70000C46184621461BF0B9FF034601930199E4
:104B80002948FFF75DFF02981BF060FC04460D46C4
:104B900003981BF05BFC1EA3D3E900231BF0AEFCC3
:104BA00002460B461046194611F068FD4FF0000210
:104BB000204B1BF0EDFA02460B46204629461BF01F
:104BC0009DFC03460C46184621464FF000024FF06C
:104BD00080431BF0BDFD03460C46184621461BF0E2
:104BE00085FF0346019301991048FFF729FF0398B9
:104BF0001BF02CFC08A3D3E900231BF0C9FA0346E1
:104C00000C46184621461BF071FF0346039383E7C9
:104C1000182D4454FB2119407B14AE47E17A843FA0
:104C2000DC250208CDCCCC3D54240020602400209B
:104C30000AD7233C0000F03F08B5044B1B684FF037
:104C4000FF31184606F0EAFA00BF08BD38420020DE
:104C500008B5034B1B68184606F014FB00BF08BDDF
:104C60003842002000B583B001900091009901986E
:104C7000FCF7A0F8019B184603B05DF804FB0000A8
:104C800000B583B001900B46ADF802300A4A019B93
:104C90001A60019800F046F8019B0433BDF9022028
:104CA0001146184608F09AFB019800F04DF8019B58
:104CB000184603B05DF804FBA426020800B585B0D1
:104CC0000190019B1B6808331B6801989847019B62
:104CD000043318460EF0DEFD0390019B1B680C3375
:104CE0001B6801989847039B184605B05DF804FBC4
:104CF00082B00190034A019B1A60019B184602B0E2
:104D0000704700BFA426020800B583B00190019847
:104D1000FFF7EEFF019803F0ADFE019B184603B0CC
:104D20005DF804FB00B583B00190064800F084F9FB
:104D300003464FF0FF31184603F0DEFF00BF03B01B
:104D40005DF804FBB025002000B583B00190054854
:104D500000F072F90346184603F0E6FF00BF03B007
:104D60005DF804FBB025002008B500210648FFF7D8
:104D700079FF064803F012FF01210348FFF772FF95
:104D8000034803F00BFFF0E7800E0020CDCCCC3DB4
:104D90000000A04010B5164814F0BAFB00F070F8FF
:104DA000034618461BF052FB03460C461A462346A0
:104DB000104814F0ADFB00F023F8034618461BF032
:104DC00045FB03460C461A4623460B4814F0A0FB4D
:104DD00000F042F8034618461BF038FB03460C4629
:104DE0001A462346054814F093FB00BF10BD00BFD0
:104DF0001026020830260208402602085026020823
:104E000000B585B0124B039340F6B8330293039B71
:104E10001B8818461BF070FF03464FF08B41184665
:104E20001CF076F80346019302981BF065FF0346D9
:104E3000084918461CF06CF8034600930099019845
:104E40001BF0B2FF0346184605B05DF804FB00BF37
:104E5000F800F81F00007A4400B583B0FFF7D0FFD8
:104E600001900648FFF72AFF0090009901981CF076
:104E70004FF80346184603B05DF804FB9C0E002073
:104E800030B58FB0554B0D93554B0C931E230B93A0
:104E90006E230A9340F6B83309930D9B1B8818467E
:104EA0001BF02AFF034618461BF0D0FA4FF0000211
:104EB0004C4B1BF04DFC03460C4625461C460998FE
:104EC0001BF01AFF034618461BF0C0FA02460B46B9
:104ED000204629461BF012FB03460C461846214685
:104EE0004FF00002404B1BF033FC03460C461846C3
:104EF00021461BF0FBFD034608930C9B1B881846BC
:104F00001BF0FAFE034618461BF0A0FA4FF0000211
:104F1000344B1BF01DFC03460C4625461C460998E5
:104F20001BF0EAFE034618461BF090FA02460B46B9
:104F3000204629461BF0E2FA03460C461846214655
:104F40004FF00002284B1BF003FC03460C461846AA
:104F500021461BF0CBFD034607930B981BF0CCFEBC
:104F6000034606930A981BF0C7FE0346059306996D
:104F700005981BF00FFE03461C46089907981BF086
:104F800009FE0346194620461BF0C2FF0346049360
:104F9000089904981BF008FF0346194606981BF071
:104FA000F9FD034603931148FFF788FE0290FFF7CF
:104FB00053FF0190029904981BF0F6FE03460199F5
:104FC00018461BF0F1FE0346194603981BF0E4FD5A
:104FD00003460093009B18460FB030BDFA00F81F3F
:104FE000FE00F81F0000B04000408F40F80E002087
:104FF00000B583B003468DF807300A4A9DF80730A4
:1050000013709DF80730002B04D001210648FBF7F0
:10501000D1FE03E000210448FBF7CCFE00BF03B043
:105020005DF804FB700F0020540F0020014B1B782B
:1050300018467047700F002000B583B001900198AA
:1050400000F006F80346184603B05DF804FB0000C4
:1050500010B582B00190019B1B68002B18D1FFF79F
:10506000EBFD019B1B68002B10D1019B04331946FB
:105070002420FBF753F90446002C04D0204603F00B
:10508000EFFD224600E02246019B1A60FFF7E0FD9B
:10509000019B1A68019B04339A4204D05D220449A3
:1050A000044802F097FD019B1B68184602B010BD32
:1050B000602602088826020800B583B0019000919E
:1050C000019B012B1ED1009B4FF6FF72934219D119
:1050D0002C210E48FFF772FBF1210D48FFF7D0FDA0
:1050E0000C4A0D490A4803F037FCF0210B48FFF742
:1050F000C7FD084A0849094803F02EFC0621084864
:10510000FFF75CFB00BF03B05DF804FB800E0020DE
:105110009C0E002040010020F14C0008F80E0020F9
:10512000540F002008B54FF6FF710120FFF7C4FFB0
:1051300008BD000000B587B005900491039202936A
:10514000059800F0E5F9104A059B1A60059B0433A9
:1051500000211846FBF7BEFB059B40330021184693
:1051600003F010FE059B5433184603F079FD089BAD
:105170000093029B039A0499059807F059FE059B3A
:10518000184607B05DF804FB5034020800B583B040
:1051900001900A4A019B1A60019BB833184600F03F
:1051A000C9F9019B9433184600F0BEF9019800F04C
:1051B000B5F9019B184603B05DF804FB30280208DE
:1051C00000B583B001900198FFF7E0FF019803F06C
:1051D00051FC019B184603B05DF804FB00B589B093
:1051E00001900198FDF735FB03460493224814F023
:1051F0008FF900238DF81F300023069300230593B9
:10520000059A049B9A4224DA0DF10F03019918467E
:10521000FDF7D4FB9DF80F301946184814F078F9C3
:105220009DF80F30812B02D101238DF81F309DF89E
:105230001F30002B09D09DF80F10114A069B134414
:105240000A461A70069B01330693059B01330593AA
:10525000D6E7069A0A490B48FAF7D0FF04990A489C
:1052600014F056F9094814F053F9049B5BB2184640
:1052700009B05DF804FB00BFB4260208C42602088A
:10528000B02400206C240020C8260208D42602087E
:1052900008B50348FBF738FE024803F07FFCF8E747
:1052A00004150020CDCC4C3E00B591B000F054F870
:1052B0006B4620491846FBF70DFB6B4619461E4806
:1052C00007F00AFE6B461846FBF71BFB04AB1B49B5
:1052D0001846FBF7FFFA04AB1946194807F0FCFD26
:1052E00004AB1846FBF70DFB08AB16491846FBF755
:1052F000F1FA08AB1946144807F0EEFD08AB184662
:10530000FBF7FFFA0CAB11491846FBF7E3FA0CABBD
:1053100019460F4807F0E0FD0CAB1846FBF7F1FA11
:105320004FF0804003F03AFC0A48FBF7B8FF00F06A
:1053300029F8F5E7694D0008301100209152000866
:105340007C130020AD54000840140020D153000805
:10535000B81200200415002008B5074814F0D8F84A
:10536000064B1B681946064814F0D2F8FDF752FCAC
:10537000FDF7F0FD00BF08BDD8260208BC030020E1
:105380001027020800B583B080220C490C48FAF7B8
:105390005FFF0190019B002B08DD019A0749094836
:1053A000FCF7C2FE084814F0B3F802E0074814F016
:1053B000AFF800BF03B05DF804FB00BF302500204C
:1053C0006C2400200415002034270208442702081A
:1053D00000B583B04FF08143019301990348FDF775
:1053E000A7FE019803F0DAFBF7E700BF24240020B2
:1053F00000B587B0642013F055FC0590059B04931D
:1054000064230393039B0293059B002B01D100238C
:1054100046E0254B1B685B68184612F059FD019069
:10542000019BB3F1FF3F34D0029B013B0293029BEF
:10543000002B0CBF01230023DBB2002B1AD0039BEF
:105440000293039B5B0003930399049814F074F890
:105450000090009B002B04D1049813F02BFC002338
:105460001EE0059A049BD31A1A46009B1344059329
:10547000009B0493059B5A1C0592019AD2B21A70A4
:105480001B780A2B0CBF01230023DBB2002B02D1B7
:10549000BFE700BF00E000BF059B00221A70049B1D
:1054A000184607B05DF804FBC003002000B583B0C8
:1054B000124814F02DF8124814F02AF8FFF798FF5C
:1054C00001901049019814F03BFC0346002B0CBFDF
:1054D00001230023DBB2002B0AD10B490198FBF713
:1054E0009FFB019813F0E6FB084803F057FBE2E747
:1054F00000BF00BF03B05DF804FB00BF58270208DF
:10550000702702088427020874020020CDCCCC3D0D
:1055100082B00190019B184602B0704782B00190A2
:10552000019B184602B0704782B00190019B18465B
:1055300002B0704700B583B00190019BDB68002B7F
:1055400004D0019BDB689B6801989847019B184633
:1055500003B05DF804FB000000B583B00190104A71
:10556000019B1A600F4A019BC3F8BC200E4A019BA5
:10557000C3F8C020019BD433184603F0E7FB019821
:1055800000F034F9019BBC33184602F015FA019B78
:10559000184601F0D5F8019B184603B05DF804FBEE
:1055A0005028020870280208CC280208A0F1BC008C
:1055B000D2E7A0F1C000CFE700B583B00190019819
:1055C000FFF7CAFF019803F055FA019B184603B094
:1055D0005DF804FBA0F1BC00EEE7A0F1C000EBE732
:1055E00000B583B001900B4A019B1A60019B5033B8
:1055F000184603F0ABFB019B2C33184603F0A6FBC7
:10560000019B0833184603F0A1FB019B184603B029
:105610005DF804FB0820020800B583B00190094A38
:10562000019B1A60019B03F6DC531846FFF7AEFDA1
:10563000019B1846FFF7D4FF019B184603B05DF8A5
:1056400004FB00BF801F020800B58BB009900891D1
:10565000099B012B40F09A80089B4FF6FF72934202
:1056600040F094804FF4165303220221494800F081
:10567000B3FE494A4949474803F06EF9484B009345
:1056800000234FF4805218214648FFF753FD424A49
:105690004549444803F060F9444B009300234FF41C
:1056A000805218214248FFF745FD3B4A3E49404899
:1056B00003F052F93F4B009300234FF4805218211E
:1056C0003D48FFF737FD344A37493B4803F044F97A
:1056D0003A4B009300234FF4805218213848FFF7CB
:1056E00029FD2D4A3049364803F036F9002300934E
:1056F00000234FF4805218213248FFF71BFD264A41
:105700002949304803F028F90023009300234FF47F
:10571000805218212C48FFF70DFD1F4A22492A48C4
:1057200003F01AF90023069300230593274B0493F3
:105730000223039327230293262301931C23009320
:105740001D231E221F212248FBF742FB124A21493A
:105750001F4803F001F9012302931F4B0193152306
:10576000009316231722D0211C48FDF76FFC042359
:105770001A2211211A48FFF700F905231B221221D2
:105780001848FFF7FAF81848FAF732FD00BF0BB0D7
:105790005DF804FB740F00204001002059550008FB
:1057A0008C2702086C1000209DD000089C2702085E
:1057B00030110020A8270208F4110020B8270208A1
:1057C000B81200207C13002040140020DD51000896
:1057D0000415002019560008CDCC8C3F242400204D
:1057E00054240020602400206C24002082B001900A
:1057F000019B184602B0704708B54FF6FF710120B3
:10580000FFF722FF08BD000000B583B001900A4AEF
:10581000019B1A60019B1433184600F015F9019B97
:1058200004331846FFF786FE019800F007F9019B44
:10583000184603B05DF804FBDC27020800B583B00E
:1058400001900198FFF7E0FF019803F013F9019B25
:10585000184603B05DF804FB00B583B001900B4619
:10586000ADF802301346ADF80030019800F0F2F8C0
:10587000194A019B1A60019B04330021184600F06D
:10588000EFF8019B14330199184600F000F9019BD1
:10589000002283F83820019B002283F83920019BE5
:1058A0003C3398220021184613F0D2FD019B0B4A8D
:1058B000C3F8D420019B3C33BDF90020BDF9021090
:1058C00018460EF0CBFF064A019B1360019B184659
:1058D00003B05DF804FB00BFDC270208A0860100CE
:1058E000D825002000B583B00190019B1B681B6880
:1058F000019898470D4B1B68019A9A420CD0019B66
:1059000003F13C02019BD3F8D430194610460FF046
:1059100063F8064A019B1360019B1B6804331B68F4
:105920000198984700BF03B05DF804FBD82500201C
:1059300000B589B00590049103920293059B1B6802
:105940001B68059898470598FFF7CCFF9DF828300D
:10595000002B01D0002300E001230793059B03F1F6
:105960003C00079B0093029B039A04990FF024F9D3
:105970000690059B1B6804331B6805989847029A9C
:10598000069B9A4214BF01230023DBB2184609B0DC
:105990005DF804FB00B589B0059004910392029371
:1059A000059B1B681B68059898470598FFF79AFFA9
:1059B0009DF82830002B01D0002300E0012307933D
:1059C000059B03F13C00079B0093029B039A0499FB
:1059D0000FF056F80690059B1B6804331B6805986A
:1059E0009847029A069B9A4214BF01230023DBB218
:1059F000184609B05DF804FB00B583B00190064875
:105A0000FFF71AFB03464FF0FF31184603F074F915
:105A100000BF03B05DF804FBDC25002000B583B0B7
:105A200001900548FFF708FB0346184603F07CF990
:105A300000BF03B05DF804FBDC25002082B00190BC
:105A4000019B184602B0704782B00190019B184636
:105A500002B0704782B00190019B184602B07047B7
:105A600000B583B001900091009B002B05D110225E
:105A70000021019813F0ECFC04E06B4619460198F4
:105A800000F01AF8019B184603B05DF804FB00B55E
:105A900087B0039002910023049300230593002311
:105AA000009304AB0CCB0299039800F023F8039BFE
:105AB000184607B05DF804FB00B583B00190009173
:105AC00010220021019813F0C3FC019B1946042009
:105AD000FAF724FC0346002B02D0009A12681A60E1
