:020000040800F2
:100000000040012021D2000855D2000855D2000836
:1000100055D2000855D2000855D200080000000053
:1000200000000000000000000000000075930008C0
:1000300055D2000800000000DD930008ED93000891
:1000400055D2000855D2000855D2000855D20008F4
:1000500055D2000855D2000855D2000855D20008E4
:1000600055D2000855D2000855D2000855D20008D4
:1000700055D2000855D2000855D2000855D20008C4
:1000800055D2000855D2000855D2000855D20008B4
:1000900055D2000855D2000855D2000855D20008A4
:1000A00055D2000855D2000855D2000855D2000894
:1000B00055D2000855D2000855D2000855D2000884
:1000C00055D2000855D2000855D2000855D2000874
:1000D00055D2000855D2000855D2000855D2000864
:1000E00055D2000855D2000855D2000855D2000854
:1000F00055D200080000000055D2000855D2000873
:1001000055D2000855D2000855D2000855D2000833
:1001100055D2000855D2000855D200080000000052
:1001200055D20008000000000000000000000000A0
:1001300000000000000000005FF808F110B5054C59
:10014000237833B9044B13B10448AFF30080012383
:10015000237010BD880D0020000000005C470208DD
:1001600008B5034B1BB103490348AFF3008008BD3A
:10017000000000008C0D00205C470208154B002B8E
:1001800008BF134B9D46A3F5803A00218B460F46CE
:100190001348144A121A19F0B3F90F4B002B00D070
:1001A00098470E4B002B00D09847002000210400F8
:1001B0000D000D48002802D00C4808F037FC18F05C
:1001C00017FD2000290008F031FF08F025FC00BFD2
:1001D000000008000040012000000000ED90000831
:1001E000880D0020C44400202D8A00080000000073
:1001F00082B00190019B184602B070472DE9F04390
:100200008DB00B900B9B5B7898460B9B9B78994627
:100210000B9BD3F80330184620F070F904460D46C6
:100220000B9BD3F80730184620F068F906460F46B6
:100230000B9BDB7A09930B9BDA680A920B9B1B6979
:10024000184620F05BF902460B46CDE906230A9AD0
:100250000592099B0493CDE90267CDE900454A4622
:100260004146034819F0ACF900BF0DB0BDE8F0837A
:100270005816020800B585B0039002910192039BC5
:10028000D3F803301946029804F052FC4FF00001F5
:10029000029804F06EFC039BD3F8073019460198CE
:1002A00004F046FC4FF00001019804F062FC039B4F
:1002B0005B78002B03D0029804F01EFC02E0029849
:1002C00004F028FC039B9B78002B03D0019804F0DA
:1002D00013FC02E0019804F01DFC00BF05B05DF8BE
:1002E00004FB000000B587B0039002910192019BCE
:1002F000132B15DD029B0593059B1B78812B08D1E1
:100300000598FFF77BFF0B4A0B490598FFF7B2FFF3
:100310000BE0059B1B781946084819F051F904E0D9
:1003200014220199064819F04BF90023184607B02A
:100330005DF804FB6024002054240020C01602084D
:10034000D816020800B585B0039002910192039B74
:1003500080221A752D4803F01BFA0246039BC3F84E
:1003600015202A4803F050FA0246039BC3F81920CF
:10037000264803F091F90246039BC3F81D20234849
:1003800003F07AFA0246039BC3F821201F4803F0CA
:100390008FFB0246039BC3F8252004F0E9FD0246CB
:1003A000039BC3F8292004F0B9FE03461A46039BB9
:1003B00083F82D2002F088FE03461A46039BC3F8FB
:1003C0002E20039B4FF00002C3F83220039B4FF016
:1003D0000002C3F836200D4B9A6A039BC3F83A20FB
:1003E0000A4BDA6A039BC3F83E20019B2D2B08D9E8
:1003F000039B14332E221946029818F0A9FF2E23CE
:1004000000E00023184605B05DF804FB242400201A
:1004100082B001900091009B184602B07047000026
:1004200000B583B001900091034819F0C9F800238A
:10043000184603B05DF804FBC81A020800B585B081
:100440000190009101990D4819F0BAF80023039327
:10045000039A019B9A420BDA039B1B01009A1344F7
:100460001946074819F0ACF8039B01330393EFE7F3
:100470000023184605B05DF804FB00BFD81A020837
:10048000F41A02082DE9F04794B01390129104F089
:10049000F9FC314819F094F8304803F0FDF80346B0
:1004A000184620F02BF8CDE90C012C4803F070F928
:1004B0000346184620F022F805460E46274803F06A
:1004C000A3F90346184620F019F807468846234842
:1004D00003F0D2F90346184620F010F881468A4608
:1004E0001E4803F0F5F90346184620F007F8CDE959
:1004F0000E011A4803F018FA034618461FF0FEFFD3
:10050000CDE91001154803F047FA034618461FF0DD
:10051000F5FF03460C46CDE90A34DDE91034CDE998
:100520000834DDE90E34CDE90634CDE9049ACDE98D
:100530000278CDE90056DDE90C23094819F040F8AE
:10054000084819F03DF8054803F08EFF00231846CF
:1005500014B0BDE8F08700BFFC1A02082424002074
:100560000C1B0208701B020810B586B001900091A8
:10057000019B032B25D1009B1033184617F066FB17
:1005800003460C461846214620F008FB0346049318
:10059000009B2033184617F059FB03460C461846BB
:1005A000214620F0FBFA0346039304991F4804F008
:1005B000BFFA03991D4804F0DCFA1C4804F09CFAC9
:1005C0002FE0019B022B19D1009B1033184617F026
:1005D0003DFB03460C461846214620F0DFFA034651
:1005E00005930599114804F0A3FA4FF07C510F4888
:1005F00004F0BFFA0D4804F07FFA12E0019B012BD2
:100600000CD10B49094804F093FA4FF07C5107488C
:1006100004F0AFFA054804F06FFA02E0054818F05C
:10062000CFFF0023184606B010BD00BF54240020A1
:10063000CDCCCC3D8C1B020800B583B0019000915D
:10064000034804F067FA0023184603B05DF804FB82
:100650005424002010B586B001900091019B032B1B
:1006600025D1009B1033184617F0F0FA03460C46CC
:100670001846214620F092FA03460493009B20334B
:10068000184617F0E3FA03460C461846214620F0B8
:1006900085FA0346039304991F4804F049FA039925
:1006A0001D4804F066FA1C4804F026FA2FE0019B6E
:1006B000022B19D1009B1033184617F0C7FA0346D6
:1006C0000C461846214620F069FA03460593059921
:1006D000114804F02DFA4FF07C510F4804F049FA0C
:1006E0000D4804F009FA12E0019B012B0CD10B49D3
:1006F000094804F01DFA4FF07C51074804F039FA1C
:10070000054804F0F9F902E0054818F059FF002304
:10071000184606B010BD00BF60240020CDCCCC3DF3
:100720008C1B020800B583B001900091034804F0CF
:10073000F1F90023184603B05DF804FB60240020A3
:1007400000B587B00190009102AB0949184600F04E
:100750003BF902AB194607480CF016FC02AB1846F1
:1007600000F049F90023184607B05DF804FB00BF0C
:10077000C14B00086C10002000B583B001900091BF
:1007800003480CF0A3FC0023184603B05DF804FBFB
:100790006C10002010B584B001900091019B012BDA
:1007A0001BDD01230393039A019B9A4218DA039BF2
:1007B0001B01009A13441C46039B1B01009A13441F
:1007C000184619F051FC03461A462146064801F026
:1007D00023FD039B01330393E5E7044818F0F0FE83
:1007E0000023184604B010BD041500208C1B02081D
:1007F00010B584B001900091019B002B0EDD0B48D9
:1008000003F056F9039003981FF078FE03460C4658
:100810001A462346064818F0D3FE02E0054818F0B1
:10082000CFFE0023184604B010BD00BF24240020D2
:10083000A41B02088C1B020810B584B00190009123
:10084000019B012B1BDD009B1033184617F0FEF9AE
:1008500003460C461846214620F0A0F903460393B0
:1008600003990A4803F0D0F803981FF047FE0346A7
:100870000C461A462346064818F0A2FE02E0054838
:1008800018F09EFE0023184604B010BD242400205A
:10089000AC1B02088C1B020800B583B001900091CC
:1008A000034803F02DFB0023184603B05DF804FB5A
:1008B0002424002000B583B001900091034803F088
:1008C00040FB0023184603B05DF804FB24240020FD
:1008D00000B583B001900091034803F0CBFB0023E7
:1008E000184603B05DF804FB2424002010B584B042
:1008F00001900091019B012B1BDD009B10331846DA
:1009000017F0A4F903460C461846214620F046F994
:100910000346039303990A4803F040FC03981FF031
:10092000EDFD03460C461A462346064818F048FEDD
:1009300002E0054818F044FE0023184604B010BD3C
:1009400024240020CC1B02088C1B020810B582B0A6
:1009500001900091084803F061FC034618461FF01F
:10096000CDFD03460C461A462346044818F028FEDF
:100970000023184602B010BD24240020E81B020802
:1009800000B583B001900091012004F0A9FB044858
:1009900018F016FE0023184603B05DF804FB00BFF4
:1009A000001C020800B583B001900091002004F003
:1009B00097FB044818F004FE0023184603B05DF8C6
:1009C00004FB00BF101C020800B583B00190009129
:1009D000009B002B05D110220021019818F090FDFA
:1009E00004E06B461946019800F016F8019B184682
:1009F00003B05DF804FB00B583B00190019BDB6898
:100A0000002B04D0019BDB689B6801989847019BF1
:100A1000184603B05DF804FB00B583B00190009167
:100A200010220021019818F06BFD019B194604204B
:100A3000FFF7EEFC0346002B02D0009A12681A6002
:100A4000019B034ADA6000BF03B05DF804FB00BFFE
:100A5000241C020800B583B00190019B1B689847D5
:100A600000BF03B05DF804FB00B583B001900091B6
:100A7000019B19460420FFF7CBFC0346002B02D054
:100A8000009A12681A6000BF03B05DF804FB82B0E0
:100A9000019000BF02B0704700B59BB00390029177
:100AA0000192039819F0E0FA0346179320238DF87A
:100AB00057300A21039819F027F91690169B002B3E
:100AC00014BF01230023DBB2002B02D0169B0022AF
:100AD0001A700D21039819F017F91690169B002B28
:100AE00014BF01230023DBB2002B02D0169B00228F
:100AF0001A70039819F0B8FA03460133402B8CBFE3
:100B000001230023DBB2002B01D002233BE005AB25
:100B10000399184619F04AFA0DF1570205AB114630
:100B200018461AF0E1FA199000231893199B002B2C
:100B300025D0189B092B01DD032324E0199819F017
:100B400093FA034601330F2B8CBF01230023DBB242
:100B5000002B01D0042316E0189B1B01019A1344BB
:100B60001999184619F022FA0DF157031946002079
:100B70001AF0BAFA1990189B01331893D6E7029B22
:100B8000189A1A60002318461BB05DF804FB000099
:100B900000B589B0039002910192174B1B68069330
:100BA000019B002B01D1062322E000230793079A23
:100BB000069B9A421BDA079B9B00019A13441B6811
:100BC0001B6805930599029819F012F90346002B4A
:100BD0000CBF01230023DBB2002B04D0039B079A38
:100BE0001A60002304E0079B01330793DFE7052326
:100BF000184609B05DF804FB201C020800B587B058
:100C00000190009104AB1F4A19460198FFF744FF79
:100C100003468DF817309DF81730002B02D09DF851
:100C200017302AE0009B002B01D1062325E000238A
:100C3000039303AB009A13491846FFF7A9FF034635
:100C40008DF817309DF81730002B02D09DF8173023
:100C500013E0039B0C4A52F82330DB68049A0949DD
:100C60001046984703468DF817309DF81730002B33
:100C700002D09DF8173000E00023184607B05DF859
:100C800004FB00BFA40D00207402002000B583B057
:100C9000194B1B680093194818F092FC184818F07B
:100CA0008FFC00230193019A009B9A421EDA154A99
:100CB000019B52F823301B681946134818F080FC3A
:100CC000104A019B52F823305B6819460F4818F010
:100CD00077FC0C4A019B52F823309B6819460C485C
:100CE00018F06EFC019B01330193DCE700231846EA
:100CF00003B05DF804FB00BF201C0208E81C0208DA
:100D0000081D020874020020281D0208381D020870
:100D1000481D020800B585B001900091009B002B92
:100D200003D106238DF80F3006E000990198FFF7F4
:100D300065FF03468DF80F309DF80F30052B01D16C
:100D4000FFF7A4FF9DF80F30002B04D09DF80F3063
:100D5000184600F007F89DF80F30184605B05DF80A
:100D600004FB000000B585B003468DF8073038233A
:100D700003939DF80730039A9A420CDD084B1B68D9
:100D8000D8689DF80730074ADB0013445B681A46B1
:100D9000054917F065FA00BF05B05DF804FB00BF18
:100DA000C0030020C00200208C1D020882B0019008
:100DB0000091009B002B05D0019B9B68019A126853
:100DC0001A6004E0019BDB68019A12681A6000BF98
:100DD00002B0704782B00190019B5B681A68019B6A
:100DE0001B681340002B01D0012300E000231846AC
:100DF00002B0704700B583B001900B46ADF80230E9
:100E0000019B1A460023136053609360D360136103
:100E100053619361019BBDF902201146184605F00C
:100E20009FFE019B184603B05DF804FB00B583B03C
:100E30000190019B1846FFF7CDFF0346184603B00B
:100E40005DF804FB00B583B001900B468DF80330CC
:100E500006F0E2FF019B9DF803201146184612F0B0
:100E60002FFF07F025F800BF03B05DF804FB00B5C5
:100E700085B003900B460192ADF80A30039B1A46E9
:100E80000023136053609360D360136153619361D7
:100E9000039BBDF90A10019A184605F098FE039BC2
:100EA000184605B05DF804FB00B583B001900091D1
:100EB000019B00991846FFF779FF00BF03B05DF86A
:100EC00004FB000010B58EB00590084611461A4686
:100ED0000346ADF812300B46ADF810301346ADF8AE
:100EE0000E3005989DF85830159A149901F012F9B2
:100EF0003D4A059B1A60059B03F6DC50BDF90E4088
:100F0000BDF91020BDF912104FF0FF3300932346B6
:100F100005F018F8059B03F6B863BDF940100122EF
:100F20001846FFF7A4FF059B03F6D463BDF94410F0
:100F300001221846FFF79BFF059B03F56F63BDF980
:100F4000482011461846FFF755FF059B27491846CC
:100F500001F0D2F9059B139AC3F8182F059B03F6ED
:100F6000DC5300220821184605F046F8059B03F6DD
:100F7000DC531F49184605F073F8059B03F56F63B2
:100F800001211846FFF75EFF07AB1C22002118461F
:100F900018F0B6FA06238DF8303000238DF835307E
:100FA000144B09930623ADF8323000230793124BFC
:100FB0000B930A238DF8293055238DF83430022302
:100FC0008DF828303C238DF836300023089307AB8A
:100FD0001946059800F040F9059800F0CFF9059BF7
:100FE00018460EB010BD00BF80200208981D0208F0
:100FF00040420F00400ECF1920A107002DE91048F4
:1010000095B0019001238DF84F30019B554918464A
:1010100001F072F9019800F079FA019800F0F0FA05
:101020000346012B0CBF01230023DBB2002B01D0B0
:10103000012392E0019B7433184601F082FC129068
:10104000129B002B00F08480129B3B2B1ED90023A7
:101050008DF84F30019B2C334FF0FF31184607F0CD
:10106000A3FE019B03F1740102AB3C22184601F080
:1010700009FD1190019B2C33184607F0ADFE02AB21
:101080003C221946019800F0E5FA61E0019BD3F893
:101090001C3F002B09D1002007F05EFD03460C46E3
:1010A0001A46019BC3F81C2F52E0002007F054FDA4
:1010B0000A460146019BD3F81C3F9B464FF0000CAB
:1010C0000B461446B3EB0B0364EB0C04019AD2F805
:1010D000182F11464FF00002994272EB0403B4BF7F
:1010E00001230023DBB2002B32D0019B0022C3F886
:1010F0001C2F019B2C334FF0FF31184607F054FE94
:10110000019B03F1740102AB3C22184601F0BAFCCA
:101110001190019B2C33184607F05EFE119B8DF851
:101120004E309DF84E303B2B0CD89DF84E3014AA13
:101130001344002203F8482C9DF84E3001338DF8FB
:101140004E30EEE702AB3C221946019800F082FADD
:10115000019800F013F99DF84F30184615B0BDE81E
:10116000108800BFA41D020800B597B0039002913B
:10117000019201238DF85330039B2549184601F055
:10118000BBF8039800F0C2F9039800F039FA03465F
:10119000012B0CBF01230023DBB2002B01D0002365
:1011A00031E0019B1593159B002B2AD0159B3B2BFF
:1011B00012D905AB3C220299184618F0C9F805ABC4
:1011C0003C221946039800F045FA159B3C3B1593C9
:1011D000029B3C330293E6E705AB3C220021184614
:1011E00018F08EF905AB159A0299184618F0B0F868
:1011F00005AB3C221946039800F02CFA0023159306
:10120000D1E79DF85330184617B05DF804FB00BFD6
:10121000B41D020800B583B00190019B0D4918462A
:1012200001F06AF8019B03F6D46300211846FFF72A
:101230003BFE0A2007F020FD019B03F6D463012149
:101240001846FFF731FE0A2007F016FD00BF03B075
:101250005DF804FBC01D020800B583B00190009149
:10126000019B3349184601F047F8019B002283F89F
:10127000152F0198FFF7CEFF019800F081FC009B2D
:101280009B681946019800F0BDFC00220E210198D0
:1012900000F071F900220F21019800F06CF90C2187
:1012A000019800F053F9034643F00303DBB21A46FA
:1012B0000C21019800F05FF9009B1B7B19460198F7
:1012C00000F072FC009B5B7B1946019800F0FEFC6D
:1012D000009B1B7D1946019800F040FE009B1B6996
:1012E0001946019800F058FD009BDB8A19460198C9
:1012F00000F06EFE009B1B7E1946019800F0A2FED6
:10130000009B9B7E1946019800F004FA009B5B7ECF
:10131000002B03D0019800F0ADFE02E0019800F030
:10132000BDFE019800F018FC00BF03B05DF804FB9F
:10133000D01D020800B585B00190019B0E491846EA
:1013400000F0DAFF019800F05BF903468DF80F30EA
:101350009DF80F30012B09D09DF80F30022B05D0DE
:101360009DF80F30042B01D0012300E00023184624
:1013700005B05DF804FB00BFDC1D020800B583B0BA
:101380000190019800F0F6F90346184603B05DF8A5
:1013900004FB00B583B00190019800F0DDFB012350
:1013A000184603B05DF804FB00B587B003900B4608
:1013B0008DF80B3013468DF80A30039B93F8153FD8
:1013C000DBB2002B14BF01230023DBB2002B01D0C2
:1013D000002336E0039B012283F8152F00238DF8AC
:1013E000143000238DF815309DF80B308DF8103037
:1013F0009DF80A308DF81130039B03F6B863002185
:101400001846FFF751FD0A2007F046FC039B03F640
:10141000DC5005AA04A9022300931346022204F01B
:1014200090FE0A2007F038FC039B03F6B863012105
:101430001846FFF739FD039B002283F8152F9DF80E
:101440001530184607B05DF804FB10B5C6B005AC02
:101450002060084603A90A6019460DF113030246ED
:101460001A700DF112030A461A7005AB1B6893F847
:10147000153FDBB2002B14BF01230023DBB2002B8E
:1014800040D105AB1B68012283F8152F0DF1130322
:101490001B7863F07F03DAB206AB1A700DF112030A
:1014A000197803AB06AA501C0A46196817F050FFBA
:1014B00005AB1B6803F6B86300211846FFF7F4FC80
:1014C0000A2007F0E9FB05AB1B6803F6DC500DF1C1
:1014D00012031B785A1C06A900230093002304F072
:1014E00030FE0A2007F0D8FB05AB1B6803F6B86393
:1014F00001211846FFF7D8FC05AB1B68002283F8D2
:10150000152F00E000BF46B010BD000000B583B04D
:101510000190019B0C49184600F0EEFE019B03F57B
:101520006F631846FFF782FC0346002B14BF0123AC
:101530000023DBB2002B02D0019800F0EFF900BFCE
:1015400003B05DF804FB00BFEC1D020800B583B0DA
:1015500001900B468DF803309DF8033003F07F03B4
:10156000DBB2002219460198FFF71EFF034618461A
:1015700003B05DF804FB00B583B001900B468DF815
:10158000033013468DF802309DF8033063F07F037B
:10159000DBB29DF8022019460198FFF705FF00BF56
:1015A00003B05DF804FB00B585B001900B468DF8E3
:1015B000033013468DF80230019800F049F90346D4
:1015C0008DF80F309DF80F30802B02D0019800F07D
:1015D000D7FA9DF802209DF8033019460198FFF7CD
:1015E000CAFF9DF80F30802B06D09DF80F301A46A9
:1015F00001210198FFF7BFFF00BF05B05DF804FBB4
:1016000000B585B00190019800F022F903468DF8ED
:101610000F309DF80F30832B01D1012316E09DF888
:101620000F30852B03D09DF80F30862B01D102237C
:101630000CE09DF80F30812B01D1002306E09DF8CE
:101640000F30802B01D1012300E00423184605B0A0
:101650005DF804FB00B587B00390029113468DF846
:101660000730039B2A49184600F046FE0398FFF70F
:10167000C7FF03468DF817309DF81730012B03D0B4
:101680009DF81730042B01D100233DE0039800F0B2
:1016900063FA402240210398FFF76DFF00220D21DD
:1016A0000398FFF768FF9DF80730029A002103981E
:1016B000FFF7CBFE039B93F8143F002B06D19DF858
:1016C00007301A4622210398FFF755FF8322012194
:1016D0000398FFF750FF12210398FFF737FF0346E7
:1016E00003F00803002B0CBF01230023DBB2002B07
:1016F00000D0F0E7082212210398FFF73CFF0023F7
:101700008DF817309DF80730184607B05DF804FBD8
:10171000F81D020800B583B001900B468DF8033028
:10172000019B0F49184600F0E7FD9DF80330002BA0
:101730000AD0019800F0DAFC9DF803301A46222105
:101740000198FFF718FF02E0019800F0BBFC019B35
:101750009DF8032083F8142F00BF03B05DF804FB4D
:101760000C1E020882B00190019B93F8143F1846AA
:1017700002B0704700B583B00190019B1C49184628
:1017800000F0BAFD0198FFF7D5FD0346002B0CBF12
:1017900001230023DBB2002B01D0002323E0002231
:1017A00040210198FFF7E7FE019800F051F8034649
:1017B000852B14BF01230023DBB2002B12D001982C
:1017C000FFF7D0FF03461A4622210198FFF7D3FE08
:1017D00000220D210198FFF7CEFE852201210198FC
:1017E000FFF7C9FE0123184603B05DF804FB00BFF4
:1017F000241E020800B585B00190019B13491846CC
:1018000000F07AFD0198FFF7FBFE03468DF80F30DC
:101810009DF80F30012B03D09DF80F30042B01D120
:1018200000230EE013210198FFF790FE03468DF888
:101830000E30019BD3F8103FDBB29DF80E20D31A77
:10184000DBB2184605B05DF804FB00BF741E020849
:1018500000B585B0019001210198FFF777FE03469E
:101860008DF80F30019B1B79002B40D0019B234941
:10187000184600F041FD9DF80F30032B1FD0032BBD
:1018800004DC002B0FD0012B13D02AE0062B22D032
:10189000802B02D0052B18D023E0019B1849184655
:1018A00000F02AFD23E0019B1649184600F024FDB4
:1018B0001DE0019B1449184600F01EFD17E0019B36
:1018C0001249184600F018FD11E0019B1049184616
:1018D00000F012FD0BE0019B0E49184600F00CFDD4
:1018E00005E0019B0C49184600F006FD00BF9DF87D
:1018F0000F30184605B05DF804FB00BFA01E0208BB
:10190000B01E0208C01E0208CC1E0208DC1E02081F
:10191000E41E0208F81E0208081F020800B585B080
:101920000190019B2249184600F0E6FC0198FFF760
:1019300019FF03461A4622210198FFF71CFE1221C7
:101940000198FFF703FE03468DF80F309DF80F3026
:101950001A4612210198FFF70EFE019B1B79002BFE
:1019600005D09DF80F301946124817F029FE9DF852
:101970000F3003F04003002B0DD09DF80F3003F023
:101980002003002B10D1019B0022C3F8102F0198D7
:1019900000F012F808E09DF80F3003F00803002B68
:1019A00002D0019800F058F800BF05B05DF804FBC4
:1019B000181F0208301F020800B595B00190019B66
:1019C0002249184600F098FC03AB3C2219460198C6
:1019D00000F08EF803461293019B1B79002B14D064
:1019E0001B4817F0EDFD00231393139A129B9A42A4
:1019F0000BDA03AA139B13441B781946154817F0FA
:101A0000DFFD139B01331393EFE7019B50334FF03E
:101A1000FF31184607F0C8F9019B03F18401129ABF
:101A200003AB184601F067F81299019B03F5947215
:101A300003AB184600F0BAFD019B5033184607F07F
:101A4000CBF900BF15B05DF804FB00BF441F0208CE
:101A5000581F02086C1F020800B583B00190019B5B
:101A60000B49184600F048FC019B7433184600F0FF
:101A700068FF03463B2B94BF01230023DBB2002BFE
:101A800002D00198FFF776FE00BF03B05DF804FBBB
:101A9000701F020800B585B00190019B13491846DC
:101AA00000F02AFC0198FFF7A5FE0346002B0CBFAF
:101AB00001230023DBB2002B02D04FF0FF3310E0F4
:101AC000019BD3F8103F5A1C019BC3F8102F002133
:101AD0000198FFF73BFD03468DF80F309DF80F305E
:101AE0001BB2184605B05DF804FB00BF881F020852
:101AF00000B587B0039002911346ADF8063000237D
:101B0000ADF81630039B1349184600F0F5FB039817
:101B1000FFF7C0FF03468DF815300123002B13D0CB
:101B2000BDF81620BDF806309A420CD0BDF816302C
:101B3000029A13449DF815201A70BDF8163001332F
:101B4000ADF81630E3E700BFBDF81630184607B011
:101B50005DF804FB941F020800B583B00190019B5F
:101B60000649184600F0C8FB812201210198FFF7C1
:101B700002FD00BF03B05DF804FB00BFB41F020804
:101B800000B583B00190019B0649184600F0B4FBF4
:101B9000802201210198FFF7EEFC00BF03B05DF841
:101BA00004FB00BFC41F020800B583B001900B46C0
:101BB0008DF80330019B1249184600F09DFB9DF8FB
:101BC0000330012B03D802238DF8033006E09DF883
:101BD0000330112B02D911238DF803309DF8033007
:101BE000023BDBB25BB263F07F035BB2DBB21A464F
:101BF00009210198FFF7D7FC00BF03B05DF804FB93
:101C0000D41F020870B586B001900091019B009A24
:101C1000C3F80C2F019B2B49184600F06DFB009B6D
:101C20004FF000045E0BDD04274A4FF00003284606
:101C300031461FF083FB03460C46CDE9043401987E
:101C4000FFF706FE03468DF80F309DF80F30802B0E
:101C500002D00198FFF794FFDDE904124FF0000372
:101C60004FF000040B0C43EA0243140CDBB21A469B
:101C700006210198FFF77FFCDDE904124FF0000315
:101C80004FF000040B0A43EA0263140ADBB21A465F
:101C900007210198FFF76FFC9DF810301A460821C4
:101CA0000198FFF768FC9DF80F30802B06D09DF857
:101CB0000F301A4601210198FFF75DFC00BF06B006
:101CC00070BD00BFE81F02080048E80100B585B0FC
:101CD00001900B468DF80330019B2E49184600F009
:101CE0000BFB9DF80330052B03D806238DF803303A
:101CF00006E09DF803300C2B02D90C238DF803303D
:101D00000198FFF7A5FD03468DF80F309DF80F30C1
:101D1000802B02D00198FFF733FF9DF80330062B8C
:101D20000AD1C52231210198FFF725FC0C22372169
:101D30000198FFF720FC09E0C32231210198FFF749
:101D40001AFC0A2237210198FFF715FC1E21019881
:101D5000FFF7FCFB03465BB203F00F035AB29DF89A
:101D600003301B015BB213435BB2DBB21A461E2188
:101D70000198FFF700FC9DF80F30802B06D09DF8EE
:101D80000F301A4601210198FFF7F5FB00BF05B09F
:101D90005DF804FBFC1F020800B585B001900091BE
:101DA000019B6D49184600F0A7FA00981EF084FBCD
:101DB00055A3D3E900231EF075FE0346002B03D084
:101DC00000238DF80F3085E000981EF075FB50A3BE
:101DD000D3E900231EF066FE0346002B03D0012347
:101DE0008DF80F3076E000981EF066FB4AA3D3E929
:101DF00000231EF057FE0346002B03D002238DF86C
:101E00000F3067E000981EF057FB45A3D3E900238D
:101E10001EF048FE0346002B03D003238DF80F303D
:101E200058E000981EF048FB3FA3D3E900231EF0C2
:101E300039FE0346002B03D004238DF80F3049E010
:101E400000981EF039FB3AA3D3E900231EF02AFEC6
:101E50000346002B03D005238DF80F303AE000989D
:101E60001EF02AFB34A3D3E900231EF01BFE034619
:101E7000002B03D006238DF80F302BE000981EF0C6
:101E80001BFB2FA3D3E900231EF00CFE0346002BFF
:101E900003D007238DF80F301CE000981EF00CFBD8
:101EA00029A3D3E900231EF0FDFD0346002B03D038
:101EB00008238DF80F300DE000981EF0FDFA24A3E2
:101EC000D3E900231EF0EEFD0346002B02D00923C8
:101ED0008DF80F301D210198FFF738FB03465BB2E8
:101EE00003F00F035AB29DF80F301B015BB213438E
:101EF0005BB2DBB21A461D210198FFF754FB00BF0D
:101F000005B05DF804FB00BF000000000078BE4093
:101F1000000000000050C440000000000078CE40E7
:101F2000000000000050D440000000008084DE402B
:101F300000000000805CE440000000008084EE406F
:101F4000000000008084FE400000000080840E41FC
:101F50000000000080841E411820020800B585B0F2
:101F600001900B468DF80330019B1849184600F08C
:101F7000C3F99DF80330042B03D805238DF80330F3
:101F800006E09DF80330082B02D908238DF80330B2
:101F90009DF80330043B8DF80F301D210198FFF7A9
:101FA000D5FA03465BB223F00E035AB29DF80F3008
:101FB0005B005BB213435BB2DBB21A461D21019892
:101FC000FFF7F1FA00BF05B05DF804FB342002080A
:101FD00000B585B001900B46ADF80230019B184961
:101FE000184600F089F90198FFF732FC03468DF896
:101FF0000F309DF80F30802B02D00198FFF7C0FD05
:10200000BDF802301B12DBB21A4620210198FFF7FF
:10201000B2FABDF80230DBB21A4621210198FFF76F
:10202000AAFA9DF80F30802B06D09DF80F301A4683
:1020300001210198FFF79FFA00BF05B05DF804FB8E
:102040004C20020800B583B001900B468DF8033098
:10205000019B0749184600F04FF99DF803301A46D6
:1020600039210198FFF79FFA00BF03B05DF804FB28
:102070006820020800B583B001901E210198FFF787
:1020800065FA034643F00403DBB21A461E210198A9
:10209000FFF789FA00BF03B05DF804FB00B583B019
:1020A00001901E210198FFF751FA034623F0040323
:1020B000DBB21A461E210198FFF775FA00BF03B084
:1020C0005DF804FB00B583B001901D210198FFF776
:1020D0003DFA034623F00103DBB21A461D210198A5
:1020E000FFF749FA00BF03B05DF804FB00B583B009
:1020F00001901D210198FFF729FA034643F00103DF
:10210000DBB21A461D210198FFF735FA00BF03B074
:102110005DF804FB00B585B00390029101928DF843
:102120000330294A039B1A60039B0833184606F0C4
:10213000EFFD039B2C33184606F0EAFD039B50335A
:10214000184606F0E5FD039B9DF803201A711F4910
:10215000039800F0D1F8039B03F58C70039B943334
:102160008322194600F0A6FB039B03F58C72039BA8
:10217000C3F82C21039B029AC3F83021039B019AD8
:10218000C3F83421039B03F59473184600F0FCF860
:10219000039B03F17400039B03F6281340F25922BA
:1021A000194600F087FB039B03F18400039B03F6B1
:1021B000813340F25922194600F07CFB039B1846FC
:1021C00005B05DF804FB00BF082102088820020862
:1021D00000B587B00390029101920E49039800F078
:1021E0008BF8039B2C334FF0FF31184606F0DCFDD3
:1021F000039B7433019A1946029800F07CFC059009
:10220000039B2C33184606F0E7FD059B184607B0E4
:102210005DF804FB9C20020800B58BB0059004918A
:102220000392039B99B2059B03F5A272059B03F5EC
:102230001263009340F2D973049800F0B8F8079045
:10224000059B1B79002B33D0039A0499244817F07F
:10225000B7F9244817F0B4F900230993099A039BAE
:102260009A420BDA099B049A13441B7819461E48BC
:1022700017F0A6F9099B01330993EFE71B4817F004
:102280009FF900230893089A079B9A420DD2059B59
:10229000D3F82029089B13441B781946144817F0DB
:1022A0008FF9089B01330893EDE7124817F088F97E
:1022B000059BD3F82039079A19460598FFF788FF40
:1022C0000246079B93420CBF01230023DBB2002B85
:1022D00001D0012300E0002318460BB05DF804FB99
:1022E000A8200208C4200208D4200208D82002082E
:1022F000E8200208F020020800B583B001900091A8
:10230000019B1B79002B0FD0019B08334FF0FF314D
:10231000184606F049FD0099054817F051F9019B50
:102320000833184606F058FD00BF03B05DF804FB03
:10233000F420020886B0039002910192039B04935B
:1023400000238DF8173017E0049A029B534003F0E6
:102350000103002B05D0049B5B08019A53400493B2
:1023600002E0049B5B080493029B5B0802939DF8C8
:10237000173001338DF817309DF81730072BE3D94C
:10238000049B184606B0704782B00190019A137DF5
:102390006FF300031375019B00225A82019A137D8B
:1023A0006FF3830313750023184602B0704700B51E
:1023B0008FB0039001921A460B46ADF80A301346CF
:1023C000ADF8083002230D9300230C930023ADF8E1
:1023D0002E30BDF80A304FF6FF72934201D1002330
:1023E000E0E0019B0A930A9B05330993BDF808209E
:1023F000BDF80A3002335B0005339A4201DA00234C
:10240000D0E000230D9334E0BDF808200D990C9B1B
:102410000B4405339A4201D80023C3E0039A0D9B75
:1024200013441B78FF2B09D10D9A0C9B1344099A76
:102430001344FF221A700C9B01330C93039A0D9BDB
:102440001A440D990C9B0B4409990B4412781A708D
:10245000BDF82E00039A0D9B13441B784AF201022B
:102460001946FFF767FF0346ADF82E300D9B013389
:102470000D93BDF80A300D9A9A42C5D3BDF82E309F
:102480001B0A99B20D9A0C9B1344099A1344CAB2C1
:102490001A700D9A0C9B1344099A13441B78FF2B56
:1024A00009D10C9B01330C930D9A0C9B1344099A90
:1024B0001344FF221A700D9A0C9B13440133099A9E
:1024C0001344BDF82E20D2B21A700D9A0C9B1344FF
:1024D0000133099A13441B78FF2B0AD10C9B01335B
:1024E0000C930D9A0C9B13440133099A1344FF2259
:1024F0001A70BDF80A3002330893089A0C9B1344F3
:10250000079303238DF82D3000230C93FF238DF8C0
:102510001030089BDBB28DF811309DF81130FF2B85
:1025200009D1FF238DF812309DF82D3001338DF83D
:102530002D3001230C93089B1A0A0C9B0233D2B254
:102540000EA90B4403F8282C0C9B02330EAA13444B
:1025500013F8283CFF2B0DD10C9B03330EAA134418
:10256000FF2203F8282C9DF82D3001338DF82D30F3
:1025700002230C939DF82D30C3F105031A460A9BE4
:10258000134409939DF82D2004AB1946099816F0C1
:10259000DFFE079A0C9B134403330693109B099AA2
:1025A0001A60069B18460FB05DF804FB00B587B0B3
:1025B00003900291019200238DF8133000230593BC
:1025C00015E0039A059B13441B780199184600F007
:1025D000E7F803468DF812309DF91230002B03D036
:1025E0009DF812308DF81330059B01330593059A41
:1025F000029B9A42E5D39DF91330184607B05DF867
:1026000004FB000000B583B0034600918DF807304D
:10261000009B1B7DC3F38103DBB2032B00F2A78079
:1026200001A252F823F000BF8F27000839260008C6
:1026300083260008F1260008009B1B88002B05D18B
:102640009DF807309AB2009B1A80A3E0009B1B887C
:102650001AB29DF807301B021BB213431BB29AB289
:10266000009B1A80009A137D022161F38303137586
:10267000009B5B68184600F033F9009B00225A82E9
:1026800088E0009B1B88022B05D1009A137D43F044
:102690000C0313752CE0009B1B88013B9AB2009B36
:1026A0001A80009B5A689DF807301146184600F0C2
:1026B00075FA0346002B0CD1009A137D6FF3830348
:1026C0001375009A137D6FF3000313754FF0FF33FA
:1026D00061E0009B5B8A18469DF807304AF20102D0
:1026E0001946FFF727FE03469AB2009B5A8251E033
:1026F000009B1B88002B32D1009A137D6FF383035C
:102700001375009A137D6FF300031375009B5B8AAA
:102710001A46009B1B7C9BB21B029BB219469DF87C
:1027200007300B439A420ED1009B9B68002B07D0C9
:10273000009B9B68009A52681046984703462AE01F
:102740006FF0010327E0009BDB68002B21D0009B8A
:10275000DB68009A52681046984703461BE0009BCE
:102760009DF807201A74009B00221A8011E0009A3D
:10277000137D6FF383031375009B00221A80009A68
:10278000137D6FF3000313756FF0020303E000BFC6
:1027900000E000BF0023184603B05DF804FB00BF53
:1027A00000B583B0034600918DF807309DF80730DF
:1027B000FF2B1AD1009B1B7D03F00203DBB2002B21
:1027C0000CD0009A137D6FF3410313759DF8073009
:1027D00000991846FFF716FF034638E0009A137D6C
:1027E00043F002031375002331E0009B1B7D03F0CF
:1027F0000203DBB2002B23D0009A137D012161F389
:1028000083031375009B00221A80009A137D6FF3D7
:1028100041031375009B1B7D03F00103DBB2002B0A
:1028200009D0009BDB68002B05D0009BDB68009A79
:10283000526810469847009A137D43F001031375C0
:102840009DF8073000991846FFF7DCFE034618464E
:1028500003B05DF804FB86B0034602910192ADF827
:102860000E30BDF80E30029A13440593059B002BE1
:1028700007DA019BDB689AB2059B9BB213449BB2BB
:1028800008E0059B019AD268B3FBF2F102FB01F26A
:102890009B1A9BB2184606B0704782B00190009117
:1028A000019A009B9A4201D8019B00E0009B1846C8
:1028B00002B0704700B585B0039002911346ADF8A1
:1028C0000630039B029A1A60BDF80620039BDA606B
:1028D000039800F005F80023184605B05DF804FBE6
:1028E00082B00190019B00225A60019B00229A60F5
:1028F00000BF02B0704782B00190019B5A68019BF3
:102900009B689A4201D1012300E00023184602B0DF
:10291000704700B583B00190019B9B689BB2019A00
:1029200001211846FFF797FF03461A46019B5B6893
:102930009A4201D1012300E00023184603B05DF85C
:1029400004FB2DE9100884B00190019B9A68019B5B
:102950005B68D31A4FF00004CDE90234DDE902349C
:10296000002B74F100030CDA019BDB689B464FF0EF
:10297000000CDDE902121BEB01034CEB0204CDE974
:102980000234029B184604B0BDE81008704710B529
:1029900082B00190019BDC680198FFF7D2FF0346EB
:1029A000E31A013B184602B010BD00B583B0019098
:1029B0000091019B002B22D00098FFF7C2FF034635
:1029C00019460198FFF769FF0190009B5B689BB275
:1029D0000199009A1846FFF73EFF03461A46009BEE
:1029E0005A60009B9A68009B5B689A4208D1009BE2
:1029F00000225A60009B5A68009B9A6000E000BF6A
:102A000003B05DF804FB10B586B00390029101920B
:102A10000298FFF796FF034619460198FFF73DFF1E
:102A20000190029BDC68029B5B689BB2029A0021CA
:102A30001846FFF710FF0346E31A19460198FFF7FF
:102A40002CFF0590029B1C68029B5B689BB2029A5C
:102A500000211846FFF7FFFE03462344059A194656
:102A6000039816F075FC039A059BD018029B196811
:102A7000019A059BD31A1A4616F06AFC019B184668
:102A800006B010BD00B585B0039002910192019A85
:102A900002990398FFF7B7FF019002990198FFF799
:102AA00084FF019B184605B05DF804FB00B583B0B8
:102AB000019000910098FFF71EFF0346002B01D004
:102AC000002314E0009B1A68009B5B6813441A788B
:102AD000019B1A70009B5B689BB2009A012118460B
:102AE000FFF7B9FE03461A46009B5A6001231846B9
:102AF00003B05DF804FB10B586B00390029101921B
:102B00000298FFF706FF0346002B01D0002342E0A6
:102B10000298FFF73CFF034619460198FFF7BDFEF8
:102B20000190029BDC68029B9B689BB2029A002189
:102B30001846FFF790FE0346E31A19460198FFF77F
:102B4000ACFE0590029B1C68029B9B689BB2029A9C
:102B500000211846FFF77FFE03462344059A039998
:102B6000184616F0F5FB029B1868039A059BD118CE
:102B7000019A059BD31A1A4616F0EAFB029B9B6842
:102B80009BB20199029A1846FFF765FE03461A4662
:102B9000029B9A60019B184606B010BD00B583B039
:102BA000034600918DF807300098FFF7B2FE034608
:102BB000002B01D0002314E0009B1A68009B9B6847
:102BC00013449DF807201A70009B9B689BB2009AE3
:102BD00001211846FFF73FFE03461A46009B9A6004
:102BE0000123184603B05DF804FB000000B585B072
:102BF00001900B468DF80330019B03F1006303F550
:102C000000230193019B0E4A934203D9019B0D4A75
:102C1000934201D901230FE00BF098FC9DF803309B
:102C20001A46019900200BF0B5FC03468DF80F30D1
:102C30000BF0A4FC9DF80F30184605B05DF804FBBE
:102C4000FFFF0708FF0F080884B0019000238DF8EC
:102C50000F30019B03F1006303F500230193019BF7
:102C6000084A934203D9019B074A934201D90023A2
:102C700005E0019B1B688DF80F309DF80F3018465A
:102C800004B07047FFFF0708FF0F080800B587B0C2
:102C900003900291019200230593059A019B9A42A9
:102CA0000DDA059A039BD018059B029A13441B78F2
:102CB0001946FFF79BFF059B01330593EDE70123C1
:102CC000184607B05DF804FB10B586B0039002917A
:102CD000019200230593059A019B9A420EDA059A08
:102CE000039BD118059B029AD4180846FFF7ACFF46
:102CF00003462370059B01330593ECE70123184637
:102D000006B010BD00B59DB01C2296490020FFF70B
:102D1000DBFF4FF000731B931B9B93FAA3F31A93F3
:102D20001A9BB3FA83F35BB243F040035BB2DBB2AE
:102D30005B11012B02D18C4B1B6801E08A4B5B6B52
:102D40004FF000721992199A92FAA2F21892189AF8
:102D5000B2FA82F252B242F0400252B2D2B202F061
:102D60001F02D34003F00103002B14BF01230023F3
:102D7000DBB2002B04D07B4B1B680133794A136014
:102D80004FF080631793179B93FAA3F31693169B48
:102D9000B3FA83F35BB243F040035BB2DBB25B1187
:102DA000012B02D1704B1B6801E06F4B5B6B4FF046
:102DB00080621592159A92FAA2F21492149AB2FABB
:102DC00082F252B242F0400252B2D2B202F01F027C
:102DD000D34003F00103002B14BF01230023DBB217
:102DE000002B04D05F4B5B6801335E4A53604FF0A9
:102DF00000631393139B93FAA3F31293129BB3FAFA
:102E000083F35BB243F040035BB2DBB25B11012B97
:102E100002D1554B1B6801E0534B5B6B4FF00062D6
:102E20001192119A92FAA2F21092109AB2FA82F2C8
:102E300052B242F0400252B2D2B202F01F02D3406C
:102E400003F00103002B14BF01230023DBB2002B8E
:102E500004D0444B9B680133424A93604FF0805347
:102E60000F930F9B93FAA3F30E930E9BB3FA83F386
:102E70005BB243F040035BB2DBB25B11012B02D1CA
:102E8000394B1B6801E0384B5B6B4FF080520D9261
:102E90000D9A92FAA2F20C920C9AB2FA82F252B203
:102EA00042F0400252B2D2B202F01F02D34003F00D
:102EB0000103002B14BF01230023DBB2002B04D03D
:102EC000284BDB680133274AD3604FF000530B9344
:102ED0000B9B93FAA3F30A930A9BB3FA83F35BB2B7
:102EE00043F040035BB2DBB25B11012B02D11E4BFE
:102EF0001B6801E01C4B5B6B4FF000520992099A72
:102F000092FAA2F20892089AB2FA82F252B242F00F
:102F1000400252B2D2B202F01F02D34003F00103CA
:102F2000002B14BF01230023DBB2002B04D00D4B78
:102F30001B6901330B4A13614FF080430793079BD2
:102F400093FAA3F30693069BB3FA83F35BB243F0C1
:102F500040035BB2DBB25B11012B07D1024B1B6854
:102F600006E000BF440E002000380240334B5B6B8C
:102F70004FF080420592059A92FAA2F20492049AC6
:102F8000B2FA82F252B242F0400252B2D2B202F02F
:102F90001F02D34003F00103002B14BF01230023C1
:102FA000DBB2002B04D0264B5B690133244A53610A
:102FB0004FF000430393039B93FAA3F30293029B06
:102FC000B3FA83F35BB243F040035BB2DBB25B1155
:102FD000012B02D1194B1B6801E0184B5B6B4FF0C2
:102FE00000420192019A92FAA2F20092009AB2FA79
:102FF00082F252B242F0400252B2D2B202F01F024A
:10300000D34003F00103002B14BF01230023DBB2E4
:10301000002B04D00A4B9B690133094A9361074B8B
:103020005B6B064A43F0807353631C220449002003
:10303000FFF72CFE00BF1DB05DF804FB0038024016
:10304000440E002008B5174816F0BAFA164B1B6854
:103050001946164816F0B4FA134B5B681946144823
:1030600016F0AEFA104B9B681946124816F0A8FAF3
:103070000D4BDB681946104816F0A2FA0A4B1B6983
:1030800019460E4816F09CFA074B5B6919460C4826
:1030900016F096FA044B9B6919460A4816F090FA06
:1030A00000BF08BD10210208440E002020210208A4
:1030B000402102086021020880210208A0210208A4
:1030C000C0210208E0210208014B9B6818467047A6
:1030D000440E002000B583B001900091019B012BAC
:1030E00008D1009B4FF6FF72934203D12D21034874
:1030F000FDF780FE00BF03B05DF804FB600E00200A
:1031000008B54FF6FF710120FFF7E4FF08BD00B5D9
:1031100083B00190019813F099FB0346184603B061
:103120005DF804FB00B583B00190019813F018FC22
:103130000346184603B05DF804FB000010B58AB0E2
:103140000390029111461A460B46ADF8063013461D
:10315000ADF80430039B9DF838201A70D82005F094
:10316000B9FC03461C46BDF90420BDF906301946DA
:10317000204602F0C9FB039B5C60502005F0AAFCCE
:1031800003461C46BDF930301946204602F08EFD3C
:10319000039B9C60039B029A1A61039B1D4A5A6120
:1031A000039B1C4A9A61039B0122DA611A490D981C
:1031B0001DF052FE03461A46039B5A62039B9C680D
:1031C000164B08930023099304A808AB0CCB039972
:1031D00001F0CCFA04AB1946204602F0D9FD04AB4D
:1031E0001846FDF708FC039800F08AFE039800F0EB
:1031F00051FE039800F072FE039800F07DFF0398E3
:1032000001F03CF80021039800F003FA039B1846F4
:103210000AB010BD0AD7233C0000614519350008EB
:1032200030B58FB0019000914FF07E530D93974BC6
:103230000C93974B0B934FF080430A934FF07E53C0
:103240000993019801F0ADF80346ADF82230BDF8BE
:1032500022305B129BB203F00103ADF82030BDF8C1
:103260002230DB119BB203F00103ADF81E30BDF834
:1032700022309B119BB203F00103ADF81C30BDF866
:1032800022305B109BB203F00103ADF81A30BDF899
:10329000223003F00103ADF81830BDF82020BDF84E
:1032A0001E3013449AB2BDF81C301344ADF81630EA
:1032B000019800F0F1F90490019800F069FA039088
:1032C000744B1B78012B03D1724B02221A70BDE0A4
:1032D000BDF81A30002B03D1BDF81830002B03D0F5
:1032E0006C4B00221A70B1E06A4B1B78002B0DD199
:1032F000694B1B684FF0804118461DF069FF03467B
:10330000002B03D0634B02221A709FE0614B1B78A5
:10331000022B0BD14FF07E5103981DF03BFF03466B
:10332000002B03D05B4B03221A708FE0594B1B78A4
:10333000032B0DD1584B1B684FF0000118461DF0B0
:1033400047FF0346002B03D0524B02221A707DE048
:10335000504B1B78022B0BD14FF07E5104981DF07F
:1033600019FF0346002B03D04A4B04221A706DE06C
:10337000484B1B78022B0ED1444904981DF028FFBE
:103380000346002B07D0BDF81630002B03D0414B6D
:1033900005221A705AE03F4B1B78042B0AD13B4997
:1033A00004981DF015FF0346002B03D0394B022271
:1033B0001A704BE0374B1B78052B0CD1BDF816303B
:1033C000002B08D1334B02221A704FF07E51019826
:1033D00000F0E4FE3AE02F4B1B78052B0FD12E4B6B
:1033E0001B682B4918461DF0F3FE0346002B06D040
:1033F000284B06221A70019800F061FF26E0254B49
:103400001B78062B22D1244B1B684FF00001184675
:103410001DF0DEFE0346002B18D01E4B05221A704D
:10342000019800F06DFF0246019B9A62019B1B7898
:10343000002B0BD0019B9B6A18461DF05FF80346DA
:103440000C461A462346154816F0BAF8114B1A785E
:10345000134B1B789A4204D00F4B4FF000021A60B6
:1034600009E00D4B1B68009918461DF0EDFB034663
:103470001A46094B1A60074B1A78094B1A70054B0C
:103480001A78074B1B789A420CD019E7000040408D
:1034900000007042F80200207C0E0020002202088A
:1034A000F90200201A4B1B78002B03D1012101984F
:1034B00000F0AFF8164B1B78042B03D101210198C3
:1034C00000F0A7F8124B1B78022B03D100210198C2
:1034D00000F09FF8019800F0A1FE0246019BDA621D
:1034E000019B1B78002B0FD0094B1B781D46019BBD
:1034F000DB6A18461DF002F803460C461A462346BE
:103500002946044816F05CF800BF0FB030BD00BF7C
:10351000F80200200C22020882B00190019B0122D7
:103520001A7300BF02B0704700B587B003900B4616
:103530008DF80B301346ADF808309DF80B308DF840
:103540001030BDF80830DBB28DF81130BDF908300D
:103550001B12DBB28DF8123000230593039B5868D1
:10356000039B196904AA00230093032302F038FA8D
:103570000246059B13440593059B002B01D10123B3
:1035800000E00023184607B05DF804FB00B589B0E1
:1035900005900B4603928DF8133000238DF81830F8
:1035A00000238DF8193001230793059B5868059B6C
:1035B00019690DF1130200230093012302F010FAA0
:1035C0000246079B13440793059B5868059B19699E
:1035D00006AA00230093022302F034FA0246079B56
:1035E000134407939DF819309BB21B029AB29DF8C1
:1035F00018309BB213449BB21AB2039B1A80079BEC
:10360000002B01D1012300E00023184609B05DF82A
:1036100004FB00B585B001900B468DF80330002304
:10362000ADF80E309DF80330002B17D00DF10E03CE
:103630001A4614210198FFF7A9FFBDF80E3043F494
:1036400080739BB2ADF80E30BDF80E301BB21A4637
:1036500014210198FFF768FF012316E00DF10E0316
:103660001A4614210198FFF791FFBDF80E3023F49C
:1036700080739BB2ADF80E30BDF80E301BB21A4607
:1036800014210198FFF750FF0123184605B05DF89B
:1036900004FB00000000000030B58BB00190002357
:1036A000ADF80E300DF10E031A4640210198FFF7D8
:1036B0006DFF334B0993BDF90E3018461DF078FBB2
:1036C0000346099918461DF0C7FB034618461CF02F
:1036D00015FF04460D46BDF90E3018461CF0FCFEE1
:1036E00002460B4622A1D1E900011CF0A7FD0246CB
:1036F0000B46204629461DF083F803460C46184623
:1037000021461DF04BFA034608931D4B07931D4BB2
:1037100006931D4B05931A4908981DF051FC03466A
:103720001846FFF7F4FC0346174918461DF094FBB2
:103730000346144918461DF087FA034619461348F4
:103740001DF03EFC0346049304981CF0D7FE0AA328
:10375000D3E900231CF072FD03460C4618462146AF
:103760001DF01CFA034618460BB030BDAFF30080C5
:10377000000000004055D5406666666666127140DE
:1037800000401C4600B056453313954314097A494E
:1037900030B585B001900023ADF80E300DF10E0369
:1037A0001A463A210198FFF7F1FEBDF90E3018468E
:1037B0001DF0FEFA034618461CF0A0FE10A3D3E944
:1037C00000231CF0F3FE03460C4625461C46019BD5
:1037D000DB6918461DF0ECFA034618461CF08EFE15
:1037E00002460B46204629461CF0E0FE03460C46E6
:1037F000184621461DF0D2F90346184605B030BDE3
:103800005A98342F4F33293F30B585B001900023AB
:10381000ADF80E300DF10E031A463D210198FFF769
:10382000B5FEBDF90E3018461DF0C2FA0346184623
:103830001CF064FE0EA3D3E900231CF0B7FE034680
:103840000C4625461C46019B9B6918461CF056FEFB
:1038500002460B46204629461CF0D2FF03460C4682
:10386000184621461DF09AF90346184605B030BDAA
:10387000E95622999193B83E10B584B00190002387
:10388000ADF80E300DF10E031A463B210198FFF7FB
:103890007DFEBDF90E3018461DF08AFA0346184623
:1038A0001CF02CFE08A3D3E900231CF07FFE034686
:1038B0000C46184621461DF071F90346184604B01F
:1038C00010BD00BFAFF300804FCAA48636005B3F37
:1038D00010B584B001900023ADF80E300DF10E0349
:1038E0001A463C210198FFF751FEBDF90E301846EB
:1038F0001DF05EFA034618461CF000FE08A3D3E94B
:1039000000231CF053FE03460C46184621461DF0CA
:1039100045F90346184604B010BD00BFAFF3008060
:103920004FCAA48636005B3F30B585B001900023B6
:10393000ADF80E300DF10E031A463E210198FFF747
:1039400025FEBDF90E3018461DF032FA0346184622
:103950001CF0D4FD0EA3D3E900231CF027FE034680
:103960000C4625461C46019B5B6918461CF0C6FDAB
:1039700002460B46204629461CF042FF03460C46F1
:10398000184621461DF00AF90346184605B030BD19
:10399000E95622999193B83E10B584B00190002366
:1039A000ADF80E300DF10E031A463F210198FFF7D6
:1039B000EDFDBDF90E3018461DF0FAF90346184624
:1039C0001CF09CFD0CA3D3E900231CF037FC03463C
:1039D0000C46184621460AA3D3E900231CF010FF29
:1039E00003460C46184621461DF0D8F803461846F3
:1039F00004B010BDAFF30080000000000075C740A8
:103A0000CDCCCCCCCCCC464030B585B0019000912B
:103A10004FF0000100981DF0DBFB0346002B3AD06D
:103A200000981CF06BFD04460D46019B9B691846EF
:103A30001CF064FD02460B4619A1D1E900011CF0FF
:103A4000DFFE02460B46204629461DF02BF80346B2
:103A5000002B20D0019B9B69009918461DF0FCF9B2
:103A6000034618461CF04AFD0FA3D3E900231CF0BF
:103A7000C7FE03460C46184621461DF06FF8034664
:103A8000ADF80E30BDF90E301A461A210198FFF735
:103A90004BFD012300E00023184605B030BD00BFF8
:103AA000FCA9F1D24D62A03FFCA9F1D24D62503F7A
:103AB00030B585B001904FF0000303930DF10A0378
:103AC0001A461A210198FFF761FDBDF90A3001334A
:103AD00018461DF06DF9034618461CF00FFD10A3A3
:103AE000D3E900231CF062FD03460C4625461C4624
:103AF000019B9B6918461CF001FD02460B462046BF
:103B000029461CF07DFE03460C46184621461DF052
:103B100045F803460393039B184605B030BD00BF2C
:103B2000FCA9F1D24D62503F10B584B001900091D4
:103B300000981CF0E3FC20A3D3E900231CF0C6FF8F
:103B40000346002B33D000981CF0D8FC1CA3D3E90B
:103B500000231CF09DFF0346002B28D000981CF08A
:103B6000CDFC15A3D3E900231CF068FB03460C46EB
:103B7000184621464FF00002134B1CF017FD034678
:103B80000C46184621461CF0C1FF0346ADF80E3026
:103B9000BDF80E3003F01F03ADF80E30BDF90E3046
:103BA0001A461B210198FFF7BFFC012300E0002308
:103BB000184604B010BD00BFCDCCCCCCCC4C0B40D3
:103BC000CDCCCCCCCCCC1040000054400000000048
:103BD00010B584B0019000914FF0000100981DF0E5
:103BE000F7FA0346002B20D0154900981DF0D2FAB1
:103BF0000346002B19D000981CF080FC0EA3D3E9DB
:103C000000231CF0D3FC03460C46184621461CF04A
:103C1000A5FF0346ADF80E30BDF90E301A461D2142
:103C20000198FFF781FC012300E00023184604B04F
:103C300010BD00BFAFF30080000000000020AC40CA
:103C4000000090410000000010B584B00190009188
:103C50004FF0000100981DF0BBFA0346002B20D066
:103C6000154900981DF096FA0346002B19D00098CC
:103C70001CF044FC0EA3D3E900231CF097FC034680
:103C80000C46184621461CF069FF0346ADF80E307D
:103C9000BDF90E301A461E210198FFF745FC01239D
:103CA00000E00023184604B010BD00BFAFF3008051
:103CB000000000000020AC40000090410000000027
:103CC00010B584B0019000914FF0000100981DF0F4
:103CD0007FFA0346002B24D000981CF00FFC14A39D
:103CE000D3E900231CF0D4FE0346002B19D0009822
:103CF0001CF004FC10A3D3E900231CF081FD034653
:103D00000C46184621461CF001FF0346ADF80E3064
:103D1000BDF90E301A462E210198FFF705FC01234C
:103D200000E00023184604B010BD00BFAFF30080D0
:103D3000CDCCCCCCCCCC10405A98342F4F33293F2B
:103D400010B584B0019000914FF0000100981DF073
:103D50003FFA0346002B31D000981CF0CFFB1AA38A
:103D6000D3E900231CF09EFE0346002B26D0019BC6
:103D70005B69009918461DF06FF8034618461CF061
:103D8000BDFB13A3D3E900231CF03AFD03460C4608
:103D9000184621461CF0E2FE0346ADF80E30BDF891
:103DA0000E3003F03F03ADF80E30BDF90E301A4669
:103DB00015210198FFF7B8FB012300E00023184606
:103DC00004B010BDAFF300809A9999999999094070
:103DD000FCA9F1D24D62403F10B586B00190009130
:103DE0004FF0000100981DF0F3F90346002B43D07B
:103DF000234900981DF0D8F90346002B3CD0214BF5
:103E00000593214B0493049900981DF025F803466F
:103E10001C46049905981CF017FF034619462046D6
:103E20001DF0CEF80346039303981CF067FB4FF098
:103E30003332164B1CF0E4FC03460C461846214670
:103E40004FF00002124B1CF0F9F903460C461846DD
:103E500021461CF083FE0346ADF80A30BDF80A3057
:103E6000DBB2ADF80A30BDF90A301A4616210198C6
:103E7000FFF75AFB012300E00023184606B010BDEF
:103E80000000104200009343000020413333733F91
:103E90000000F03F00B583B001904FF07E510198D3
:103EA000FFF7B2FD0B490198FFF73EFE4FF07E5140
:103EB0000198FFF78DFE4FF081410198FFF7C4FE96
:103EC00005490198FFF7FCFE0123184603B05DF891
:103ED00004FB00BF66666640CDCC4C4000B583B0A5
:103EE00001904FF080410198FFF72AFF4FF0824187
:103EF0000198FFF771FF0123184603B05DF804FB3A
:103F000000B585B001900023ADF80E300DF10E0321
:103F10001A4614210198FFF739FBBDF80E3043F023
:103F200010039BB2ADF80E30BDF80E301BB21A462E
:103F300014210198FFF7F8FA0123184605B05DF83F
:103F400004FB00B585B001900023ADF80E300DF1F3
:103F50000E031A4614210198FFF718FBBDF80E3026
:103F600023F010039BB2ADF80E30BDF80E301BB23B
:103F70001A4614210198FFF7D7FA0123184605B015
:103F80005DF804FB00B585B001900B46ADF802303A
:103F90000023ADF80E300DF10E031A460D210198E5
:103FA000FFF7F4FABDF80E301AB2BDF80230134331
:103FB0001BB29BB2ADF80E30BDF80E301BB21A46E4
:103FC0000D210198FFF7B0FA0123184605B05DF8FE
:103FD00004FB00B585B001900B46ADF8023000231C
:103FE000ADF80E300DF10E031A460D210198FFF7C2
:103FF000CDFABDF80230DB431AB2BDF80E301BB269
:1040000013401BB29BB2ADF80E30BDF80E301BB2A0
:104010001A460D210198FFF787FA0123184605B0CB
:104020005DF804FB00B585B001900B46ADF8023099
:104030000023ADF80E300DF10E031A460D21019844
:10404000FFF7A4FABDF80E301AB2BDF802301340E3
:104050001BB29BB2ADF80E30BDF80E301A46BDF95A
:1040600002309A4201D1012300E00023184605B036
:104070005DF804FB00B585B001901C490198FFF77D
:1040800081FF0198FFF73CFF00230393019B1B7BFB
:10409000DBB283F00103DBB2002B0AD0012004F075
:1040A000EBFD039B01330393039BC82B00DCEDE77F
:1040B00000BF019B00221A730C490198FFF7B2FF61
:1040C0000346002B03D00A4815F07AFA02E00948AB
:1040D00015F076FA05490198FFF77BFF0198FFF785
:1040E00030FF0123184605B05DF804FB0080FFFF98
:1040F000382202085C22020830B585B00190019B8D
:104100005B6A254918461CF05BFF0346039303983E
:104110001CF0F4F91EA3D3E900231CF047FA034670
:104120000C4625461C46019B9B6918461CF0E6F987
:1041300002460B46204629461CF038FA03460C4638
:104140001846214602460B461CF07AF803460C46F8
:10415000184621461CF022FD034602930298FEF702
:10416000E1FF034618461DF079F803469AB2019B19
:104170001A84019B1B8C1BB21A4612210198FFF76F
:10418000D3F90123184605B030BD00BFAFF300805E
:10419000D7A3703DAA46C04000FF7F4710B584B04A
:1041A000019000914FF07E5100981DF011F80346E8
:1041B000002B07D14FF0000100981CF0EBFF0346E5
:1041C000002B01D0002321E000981CF097F94FF05C
:1041D0000002104B1CF0EAF903460C461846214633
:1041E0004FF000020C4B1CF02BF803460C4618460F
:1041F00021461CF0B3FC0346ADF80E30BDF90E307D
:104200001A4613210198FFF78FF90123184604B0CD
:1042100010BD00BF0000E0400000D04010B584B0E9
:1042200001900DF10E031A4613210198FFF7AEF924
:10423000BDF80E3018461CF0B7FD034618461CF0BA
:104240005DF94FF000020B4B1BF0F8FF03460C46E4
:10425000184621464FF00002074B1CF0D1FA0346E6
:104260000C46184621461CF099FC0346184604B03B
:1042700010BD00BF0000D0400000E04000B585B098
:1042800001900023ADF80E300DF10E031A461421F3
:104290000198FFF77BF9BDF80E3043F004039BB2A1
:1042A000ADF80E30BDF80E301BB21A46142101983D
:1042B000FFF73AF90123184605B05DF804FB00B595
:1042C00085B001900023ADF80E300DF10E031A46B3
:1042D00014210198FFF75AF9BDF80E3043F020037E
:1042E0009BB2ADF80E30BDF80E301BB21A46142149
:1042F0000198FFF719F90123184605B05DF804FB92
:1043000030B585B001900DF10E031A464121019898
:10431000FFF73CF9BDF90E3018461CF049FD024686
:10432000019B9B69194610461CF096FD03461846F2
:104330001CF0E4F84FF000020F4B1CF061FA03464A
:104340000C4625461C46019BDB6918461CF030FDD7
:10435000034618461CF0D2F802460B462046294672
:104360001CF024F903460C46184621461CF016FCA6
:104370000346184605B030BD00407F4000B585B00B
:1043800001900023ADF80E300DF10E031A463521D1
:104390000198FFF7FBF8BDF80E30184605B05DF840
:1043A00004FB00B585B001900023ADF80E300DF18F
:1043B0000E031A4634210198FFF7E8F8BDF80E30D5
:1043C000184605B05DF804FB00B585B001900023E8
:1043D000ADF80E300DF10E031A4639210198FFF7A2
:1043E000D5F8BDF80E30184605B05DF804FB00B5F1
:1043F00085B001900023ADF80E300DF10E031A4682
:1044000029210198FFF7C2F8BDF80E3003F0070329
:104410009BB2184605B05DF804FB00B585B001906D
:104420000023ADF80E300DF10E031A461421019849
:10443000FFF7ACF8BDF80E30184605B05DF804FB88
:1044400000B585B001900023ADF80E300DF10E03DC
:104450001A4643210198FFF799F8BDF80E30184627
:1044600005B05DF804FB00002DE9F04391B00B901E
:104470000B98FFF796FF0346ADF83E300B98FFF719
:104480007DFF0346ADF83C300B98FFF79DFF0346D8
:10449000ADF83A300B98FFF7AAFF0346ADF8383075
:1044A0000B98FFF7BAFF0346ADF836300B98FFF7CD
:1044B000C7FF0346ADF83430994815F081F8BDF8D0
:1044C0003C30DB1003F00101BDF83C309B1003F0E1
:1044D0000102BDF83C305B1003F00100BDF83C3038
:1044E00003F00103009303468E4815F069F8BDF808
:1044F0003E309B1203F0010CBDF83E305B1203F01E
:10450000010EBDF83E301B1203F00108BDF83E302D
:10451000DB1103F00103BDF83E20921102F001020D
:10452000BDF83E10491101F00101BDF83E00001137
:1045300000F00100BDF83E40E41004F00104BDF8B5
:104540003E50AD1005F00105BDF83E60761006F056
:104550000106BDF83E7007F001070797069605951E
:10456000049403900291019200934346724661467F
:104570006D4815F025F8BDF838309B1003F00101A7
:10458000BDF838305B1003F00102BDF8383003F09D
:104590000203664815F014F8BDF836301B1203F01C
:1045A0000101BDF836305B1103F00100BDF8363073
:1045B0001B1103F00104BDF83630DB1003F00103DA
:1045C000BDF83620921002F00102019200932346BA
:1045D0000246574814F0F4FFBDF83A305B1303F07D
:1045E000010EBDF83A30DB1203F00108BDF83A3095
:1045F0009B1203F00109BDF83A305B1203F001038E
:104600000A93BDF83A20121202F00102BDF83A10E6
:10461000891101F00101BDF83A00401100F00100DC
:10462000BDF83A40241104F00104BDF83A50ED10F1
:1046300005F00105BDF83A60B61006F00106BDF8B8
:104640003A707F1007F00107BDF83AC00CF0010383
:10465000089307970696059504940390029101929A
:104660000A9B00934B4642467146324814F0A8FF1D
:10467000314814F0A5FFBDF834301B1203F00F03CE
:10468000082B39D801A252F823F000BFB146000828
:10469000B9460008C1460008C9460008D1460008CE
:1046A000D9460008E1460008E9460008F14600083E
:1046B000224814F085FF23E0214814F081FF1FE019
:1046C000204814F07DFF1BE01F4814F079FF17E02D
:1046D0001E4814F075FF13E01D4814F071FF0FE041
:1046E0001C4814F06DFF0BE01B4814F069FF07E055
:1046F0001A4814F065FF03E0194814F061FF00BF89
:10470000184814F05DFFBDF8343003F00F0319466C
:10471000154814F055FF00BF11B0BDE8F08300BF8D
:1047200080220208B422020818230208FC2302088F
:1047300054240208BC240208A4250208BC2502084F
:10474000D4250208EC250208042602081C260208CB
:1047500034260208502602086C2602088C2602081D
:10476000A4260208B8260208BC26020800B585B0B7
:1047700003900291694681E80C006B460CCB0299CC
:10478000039800F004F8039805B05DF804FB00B549
:1047900089B003900291694681E80C0005A86B4638
:1047A0000CCB029900F00AF805AB1946039800F00B
:1047B00019F8039B184609B05DF804FB84B0039018
:1047C0000291694681E80C00039B1A466B4693E808
:1047D000030082E80300039B029A9A60039B184639
:1047E00004B0704700B583B0019000911022002101
:1047F000019814F085FE019B19460C20FBF708FE7A
:104800000346002B03D0009A07CA83E80700019BE8
:10481000024ADA6000BF03B05DF804FBD02602084C
:1048200000B583B00190019800F01DF800BF03B0FF
:104830005DF804FB00B583B001900091019B19461F
:104840000C20FBF7E5FD0346002B03D0009A07CAB6
:1048500083E8070000BF03B05DF804FB82B001905D
:1048600000BF02B0704700B583B00190019B9B6808
:10487000019A526852109918019B5B6803F001037A
:10488000002B0BD0019B9B68019A52685210134475
:104890001B68019A126813441B6801E0019B1B68A6
:1048A0000846984700BF03B05DF804FB00B583B02D
:1048B00001900B46ADF80230019B1A4600231360AD
:1048C00053609360D360136153619361019BBDF9A1
:1048D00002201146184602F069F9019B184603B000
:1048E0005DF804FB00B583B001900B46ADF80230D3
:1048F0000A4A019B1A60019B2433184604F008FA07
:10490000019B0433BDF902201146184608F062FFEE
:10491000019B184603B05DF804FB00BF00270208A6
:1049200000B583B001900091019B1B6808331B68A0
:1049300001989847019B0433009918460FF038F806
:10494000019B1B680C331B680198984700BF03B09C
:104950005DF804FB00B583B00190064A019B1A6024
:10496000019B2433184604F049FA019B184603B012
:104970005DF804FB0027020800B583B001900198A0
:10498000FFF7E8FF019804F0CDF8019B184603B04B
:104990005DF804FB00B583B00190019B24334FF018
:1049A000FF31184604F000FA00BF03B05DF804FBC5
:1049B00000B583B00190019B2433184604F00CFA33
:1049C00000BF03B05DF804FB00B583B001900B4657
:1049D000ADF80230019B00221A7603F01DFA019B0C
:1049E000BDF902201146184610F03EFD03F060FAB2
:1049F000019B184603B05DF804FB00B583B001903D
:104A0000009103F009FA019800F01CF8019B00994D
:104A1000184610F00BFE03F04BFA00BF03B05DF830
:104A200004FB00B583B00190009103F0F5F9019B00
:104A30000099184610F09DFE03F03AFA00BF03B04B
:104A40005DF804FB00B583B00190019B1B7E83F0F1
:104A50000103DBB2002B04D002F0ACF9019B012270
:104A60001A7600BF03B05DF804FB10B584B0039064
:104A7000084611461A460346ADF80A300B46ADF813
:104A800008301346ADF806301C2004F023F8034626
:104A90001C46BDF90A3019462046FFF707FF039B65
:104AA0001C601C2004F016F803461C46BDF90830B3
:104AB00019462046FFF788FF039B5C60482004F0FE
:104AC00009F803461C46BDF9063019462046FFF793
:104AD00009FF039B9C60039800F01CF84FF07E5187
:104AE000039800F025F84FF07C51039800F041F84E
:104AF000039B184604B010BD00B583B00190019B24
:104B00001B6801211846FCF7CFF90123184603B0B2
:104B10005DF804FB00B583B00190019B1B68002188
:104B20001846FCF7C1F90123184603B05DF804FBF1
:104B300000B583B0019000914FF0000100981CF087
:104B40003DFB0346002B0FD04FF07E5100981CF028
:104B50002BFB0346002B07D0019B9B68009918464E
:104B6000FFF7DEFE012300E00023184603B05DF8E6
:104B700004FB00B583B0019000914FF00001009854
:104B80001CF01CFB0346002B15D04FF07E51009803
:104B90001CF00AFB0346002B0DD0019B5B680099BB
:104BA0001846FFF72AFF019B5B6801211846FFF7B3
:104BB00038FF012300E00023184603B05DF804FB32
:104BC00030B585B0524814F0FBFC524B02934FF0C5
:104BD00000015148FFF7ACFF4FF000014E48FFF7CE
:104BE000C8FF4D48FFF788FF4FF000014B48FFF723
:104BF0009FFF4FF000014948FFF7BBFF4748FFF711
:104C00007BFF4FF000030393454804F01FF8029820
:104C10001BF074FC04460D4603981BF06FFC38A390
:104C2000D3E900231BF0C2FC02460B46104619468E
:104C300011F0C4FD4FF000023A4B1BF001FB02469D
:104C40000B46204629461BF0B1FC03460C4618468D
:104C500021464FF000024FF080431BF0D1FD034688
:104C60000C46184621461BF099FF03460193019913
:104C70002948FFF75DFF02981BF040FC04460D46F3
:104C800003981BF03BFC1EA3D3E900231BF08EFC12
:104C900002460B461046194611F048FD4FF000023F
:104CA000204B1BF0CDFA02460B46204629461BF04E
:104CB0007DFC03460C46184621464FF000024FF09B
:104CC00080431BF09DFD03460C46184621461BF011
:104CD00065FF0346019301991048FFF729FF0398E8
:104CE0001BF00CFC08A3D3E900231BF0A9FA034630
:104CF0000C46184621461BF051FF0346039383E7F9
:104D0000182D4454FB2119407B14AE47E17A843FAF
:104D1000DC260208CDCCCC3D5424002060240020A9
:104D20000AD7233C0000F03F08B5044B1B684FF046
:104D3000FF31184606F0CAFA00BF08BD384200200D
:104D400008B5034B1B68184606F0F4FA00BF08BD0F
:104D50003842002000B583B001900091009901987D
:104D6000FCF7A2F8019B184603B05DF804FB0000B5
:104D700000B583B001900B46ADF802300A4A019BA2
:104D80001A60019800F046F8019B0433BDF9022037
:104D90001146184608F07AFB019800F04DF8019B87
:104DA000184603B05DF804FBA427020800B585B0DF
:104DB0000190019B1B6808331B6801989847019B71
:104DC000043318460EF0BEFD0390019B1B680C33A4
:104DD0001B6801989847039B184605B05DF804FBD3
:104DE00082B00190034A019B1A60019B184602B0F1
:104DF000704700BFA427020800B583B00190019856
:104E0000FFF7EEFF019803F08DFE019B184603B0FB
:104E10005DF804FB00B583B00190064800F084F90A
:104E200003464FF0FF31184603F0BEFF00BF03B04A
:104E30005DF804FBB025002000B583B00190054863
:104E400000F072F90346184603F0C6FF00BF03B036
:104E50005DF804FBB025002008B500210648FFF7E7
:104E600079FF064803F0F2FE01210348FFF772FFC5
:104E7000034803F0EBFEF0E7800E0020CDCCCC3DE4
:104E80000000A04010B5164814F09AFB00F070F82E
:104E9000034618461BF032FB03460C461A462346CF
:104EA000104814F08DFB00F023F8034618461BF061
:104EB00025FB03460C461A4623460B4814F080FB9C
:104EC00000F042F8034618461BF018FB03460C4658
:104ED0001A462346054814F073FB00BF10BD00BFFF
:104EE000102702083027020840270208502702082E
:104EF00000B585B0124B039340F6B8330293039B81
:104F00001B8818461BF050FF03464FF08B41184694
:104F10001CF056F80346019302981BF045FF034628
:104F2000084918461CF04CF8034600930099019874
:104F30001BF092FF0346184605B05DF804FB00BF66
:104F4000F800F81F00007A4400B583B0FFF7D0FFE7
:104F500001900648FFF72AFF0090009901981CF085
:104F60002FF80346184603B05DF804FB9C0E0020A2
:104F700030B58FB0554B0D93554B0C931E230B93AF
:104F80006E230A9340F6B83309930D9B1B8818468D
:104F90001BF00AFF034618461BF0B0FA4FF0000260
:104FA0004C4B1BF02DFC03460C4625461C4609982D
:104FB0001BF0FAFE034618461BF0A0FA02460B4609
:104FC000204629461BF0F2FA03460C4618462146B5
:104FD0004FF00002404B1BF013FC03460C461846F2
:104FE00021461BF0DBFD034608930C9B1B881846EB
:104FF0001BF0DAFE034618461BF080FA4FF0000261
:10500000344B1BF0FDFB03460C4625461C46099815
:105010001BF0CAFE034618461BF070FA02460B4608
:10502000204629461BF0C2FA03460C461846214684
:105030004FF00002284B1BF0E3FB03460C461846DA
:1050400021461BF0ABFD034607930B981BF0ACFE0B
:10505000034606930A981BF0A7FE0346059306999C
:1050600005981BF0EFFD03461C46089907981BF0B6
:10507000E9FD0346194620461BF0A2FF03460493B0
:10508000089904981BF0E8FE0346194606981BF0A1
:10509000D9FD034603931148FFF788FE0290FFF7FE
:1050A00053FF0190029904981BF0D6FE0346019924
:1050B00018461BF0D1FE0346194603981BF0C4FDA9
:1050C00003460093009B18460FB030BDFA00F81F4E
:1050D000FE00F81F0000B04000408F40F80E002096
:1050E00000B583B003468DF807300A4A9DF80730B3
:1050F00013709DF80730002B04D001210648FBF700
:10510000D3FE03E000210448FBF7CEFE00BF03B04E
:105110005DF804FB700F0020540F0020014B1B783A
:1051200018467047700F002000B583B001900198B9
:1051300000F006F80346184603B05DF804FB0000D3
:1051400010B582B00190019B1B68002B18D1FFF7AE
:10515000EBFD019B1B68002B10D1019B043319460A
:105160002420FBF755F90446002C04D0204603F018
:10517000CFFD224600E02246019B1A60FFF7E0FDCA
:10518000019B1A68019B04339A4204D05D220449B2
:10519000044802F077FD019B1B68184602B010BD61
:1051A000602702088827020800B583B001900091AB
:1051B000019B012B1ED1009B4FF6FF72934219D128
:1051C0002C210E48FFF772FBF1210D48FFF7D0FDAF
:1051D0000C4A0D490A4803F017FCF0210B48FFF771
:1051E000C7FD084A0849094803F00EFC0621084893
:1051F000FFF75CFB00BF03B05DF804FB800E0020EE
:105200009C0E002040010020E14D0008F80E002017
:10521000540F002008B54FF6FF710120FFF7C4FFBF
:1052200008BD000000B587B0059004910392029379
:10523000059800F0C5F9104A059B1A60059B0433D8
:1052400000211846FBF7C0FB059B403300211846A0
:1052500003F0F0FD059B5433184603F059FD089BFD
:105260000093029B039A0499059807F039FE059B69
:10527000184607B05DF804FB1C35020800B583B082
:1052800001900A4A019B1A60019BB833184600F04E
:10529000A9F9019B9433184600F09EF9019800F09B
:1052A00095F9019B184603B05DF804FBFC28020841
:1052B00000B583B001900198FFF7E0FF019803F07B
:1052C00031FC019B184603B05DF804FB00B589B0C2
:1052D00001900198FDF735FB0346049300238DF8F8
:1052E0001F300023069300230593059A049B9A42DE
:1052F0001EDA0DF10F0301991846FDF7D7FB9DF853
:105300000F30812B02D101238DF81F309DF81F3003
:10531000002B09D09DF80F100C4A069B13440A4637
:105320001A70069B01330693059B01330593DCE756
:10533000074814F045F9069A04490648FAF7D2FFDF
:10534000049B5BB2184609B05DF804FBB024002052
:10535000B42702086C24002008B50348FBF74EFE72
:10536000024803F073FCF8E704150020CDCC4C3E56
:1053700000B591B000F052F86B461F491846FBF794
:1053800023FB6B4619461D4807F0FEFD6B46184689
:10539000FBF731FB04AB1A491846FBF715FB04ABCE
:1053A0001946184807F0F0FD04AB1846FBF723FB3D
:1053B00008AB15491846FBF707FB08AB194613481D
:1053C00007F0E2FD08AB1846FBF715FB0CAB1049E4
:1053D0001846FBF7F9FA0CAB19460E4807F0D4FD56
:1053E0000CAB1846FBF707FB4FF0804003F02EFC98
:1053F0000948FBF7CEFFF7E7594E000830110020AF
:10540000595300087C1300205D550008401400200B
:105410007D540008B81200200415002008B5074884
:1054200014F0CEF8064B1B681946064814F0C8F86D
:10543000FDF768FCFDF706FE00BF08BDB8270208AF
:10544000BC030020F027020800B583B08022084981
:105450000848FAF777FF0190019B002B04DD019AC1
:1054600003490548FCF7D8FE00BF03B05DF804FB14
:10547000302500206C2400200415002000B583B0E6
:105480004FF081430193FFF7DFFF01990348FDF7D8
:10549000C7FE019803F0DAFBF5E700BF24240020E3
:1054A00000B587B0642013F055FC0590059B04936C
:1054B00064230393039B0293059B002B01D10023DC
:1054C00046E0254B1B685B68184612F059FD0190B9
:1054D000019BB3F1FF3F34D0029B013B0293029B3F
:1054E000002B0CBF01230023DBB2002B1AD0039B3F
:1054F0000293039B5B0003930399049814F074F8E0
:105500000090009B002B04D1049813F02BFC002387
:105510001EE0059A049BD31A1A46009B1344059378
:10552000009B0493059B5A1C0592019AD2B21A70F3
:105530001B780A2B0CBF01230023DBB2002B02D106
:10554000BFE700BF00E000BF059B00221A70049B6C
:10555000184607B05DF804FBC003002000B583B017
:10556000124814F02DF8124814F02AF8FFF798FFAB
:1055700001901049019814F03BFC0346002B0CBF2E
:1055800001230023DBB2002B0AD10B490198FBF762
:10559000C1FB019813F0E6FB084803F057FBE2E774
:1055A00000BF00BF03B05DF804FB00BF2428020861
:1055B0003C2802085028020874020020CDCCCC3DC3
:1055C00082B00190019B184602B0704782B00190F2
:1055D000019B184602B0704782B00190019B1846AB
:1055E00002B0704700B583B00190019BDB68002BCF
:1055F00004D0019BDB689B6801989847019B184683
:1056000003B05DF804FB000000B583B00190104AC0
:10561000019B1A600F4A019BC3F8BC200E4A019BF4
:10562000C3F8C020019BD433184603F0E7FB019870
:1056300000F034F9019BBC33184602F015FA019BC7
:10564000184601F0D5F8019B184603B05DF804FB3D
:105650001C2902083C29020898290208A0F1BC0074
:10566000D2E7A0F1C000CFE700B583B00190019868
:10567000FFF7CAFF019803F055FA019B184603B0E3
:105680005DF804FBA0F1BC00EEE7A0F1C000EBE781
:1056900000B583B001900B4A019B1A60019B503307
:1056A000184603F0ABFB019B2C33184603F0A6FB16
:1056B000019B0833184603F0A1FB019B184603B079
:1056C0005DF804FB0821020800B583B00190094A87
:1056D000019B1A60019B03F6DC531846FFF7CEFDD1
:1056E000019B1846FFF7D4FF019B184603B05DF8F5
:1056F00004FB00BF8020020800B58BB00990089120
:10570000099B012B40F09A80089B4FF6FF72934251
:1057100040F094804FF4165303220221494800F0D0
:10572000B3FE494A4949474803F06EF9484B009394
:1057300000234FF4805218214648FFF773FD424A78
:105740004549444803F060F9444B009300234FF46B
:10575000805218214248FFF765FD3B4A3E494048C8
:1057600003F052F93F4B009300234FF4805218216D
:105770003D48FFF757FD344A37493B4803F044F9A9
:105780003A4B009300234FF4805218213848FFF71A
:1057900049FD2D4A3049364803F036F9002300937D
:1057A00000234FF4805218213248FFF73BFD264A70
:1057B0002949304803F028F90023009300234FF4CF
:1057C000805218212C48FFF72DFD1F4A22492A48F4
:1057D00003F01AF90023069300230593274B049343
:1057E0000223039327230293262301931C23009370
:1057F0001D231E221F212248FBF764FB124A214968
:105800001F4803F001F9012302931F4B0193152355
:10581000009316231722D0211C48FDF78FFC042388
:105820001A2211211A48FFF720F905231B22122101
:105830001848FFF71AF91848FAF7DAFC00BF0BB05E
:105840005DF804FB740F0020400100200956000899
:10585000582802086C1000204DD100086828020862
:105860003011002074280208F41100208428020856
:10587000B81200207C13002040140020CD520008F4
:1058800004150020C9560008CDCC8C3F24240020EC
:1058900054240020602400206C24002082B0019059
:1058A000019B184602B0704708B54FF6FF71012002
:1058B000FFF722FF08BD000000B583B001900A4A3F
:1058C000019B1A60019B1433184600F015F9019BE7
:1058D00004331846FFF786FE019800F007F9019B94
:1058E000184603B05DF804FBA828020800B583B091
:1058F00001900198FFF7E0FF019803F013F9019B75
:10590000184603B05DF804FB00B583B001900B4668
:10591000ADF802301346ADF80030019800F0F2F80F
:10592000194A019B1A60019B04330021184600F0BC
:10593000EFF8019B14330199184600F000F9019B20
:10594000002283F83820019B002283F83920019B34
:105950003C3398220021184613F0D2FD019B0B4ADC
:10596000C3F8D420019B3C33BDF90020BDF90210DF
:1059700018460EF0CBFF064A019B1360019B1846A8
:1059800003B05DF804FB00BFA8280208A086010050
:10599000D825002000B583B00190019B1B681B68CF
:1059A000019898470D4B1B68019A9A420CD0019BB5
:1059B00003F13C02019BD3F8D430194610460FF096
:1059C00063F8064A019B1360019B1B6804331B6844
:1059D0000198984700BF03B05DF804FBD82500206C
:1059E00000B589B00590049103920293059B1B6852
:1059F0001B68059898470598FFF7CCFF9DF828305D
:105A0000002B01D0002300E001230793059B03F145
:105A10003C00079B0093029B039A04990FF024F922
:105A20000690059B1B6804331B6805989847029AEB
:105A3000069B9A4214BF01230023DBB2184609B02B
:105A40005DF804FB00B589B00590049103920293C0
:105A5000059B1B681B68059898470598FFF79AFFF8
:105A60009DF82830002B01D0002300E0012307938C
:105A7000059B03F13C00079B0093029B039A04994A
:105A80000FF056F80690059B1B6804331B680598B9
:105A90009847029A069B9A4214BF01230023DBB267
:105AA000184609B05DF804FB00B583B001900648C4
:105AB000FFF73AFB03464FF0FF31184603F074F945
:105AC00000BF03B05DF804FBDC25002000B583B007
:105AD00001900548FFF728FB0346184603F07CF9C0
